:100000000C9484100C94AC100C94AC100C94AC10A8
:100010000C94AC100C94AC100C94AC100C94AC1070
:100020000C94AC100C94AC100C94A8250C941726CE
:100030000C94AC100C94AC100C94AC100C94AC1050
:100040000C94AC100C94AC100C94AC100C94AC1040
:100050000C94AC100C94AC100C94AC100C9449287B
:100060000C94AC100C94AC100C94AC100C94AC1020
:100070000C94AC100C94AC100C94AC100C94AC1010
:100080000C94AC100C94AC100C94AC100C94AC1000
:100090000C94AC100C94AC100C94AC100C94AC10F0
:1000A0000C94AC100C94AC100C94AC100705050F1C
:1000B0000F0D0D0F010905030F0D0D0D0B0B0D0D90
:1000C0000302020F09090D0F0D0D0B0B000A0F089B
:1000D0000F09090F3737373737373737373737375C
:1000E000373737373737370101370137371D37375C
:1000F00037373737010101370101370137373737D4
:1001000037010101010101010101373737370101D1
:10011000010101010101010137373701010101012D
:100120000101010101010137370101010101010153
:1001300001010101013737373701010101010101D7
:1001400001373737370101010101010101010101C7
:1001500001373701010101010101010101010137ED
:1001600037010101010101010101010101373701DD
:100170000101010101010101010101373737370197
:100180000101010101010137373737010101010187
:1001900001010101010101373701010101010101E3
:1001A000010101010137373701010101010101019D
:1001B0000101373737370101010101010101013721
:1001C0003737373701370101370101013737373703
:1001D0003737113737013701013737373737373777
:1001E000373737373737373737373737000000007B
:1001F0000000000000001D000000000000010101DF
:1002000028000000010100000000010101010100BF
:1002100000000101020000010101010101010000D3
:100220000101010000010101010170010100010152
:100230000100000101010101010101000101300083
:1002400000010101010101010100010101000001A2
:100250000101010101010000010101001201010180
:100260000101010000010101011E00010101012F36
:100270001400000101010100000101012D2C00000A
:10028000010101010100000101010000002901013B
:100290000101010000010100000002010101010152
:1002A0000200000100000001010101010101000044
:1002B000001400020101010101010101010000001F
:1002C0000000010101010200010101000000000124
:1002D0000101010101000101010000000101010112
:1002E0000101010101010100000101010101010100
:1002F00001010101000000110000000000000000E9
:1003000000000000000000000000000000001D00D0
:100310000000314040404040012B2D0001140000FE
:1003200040404040404001012E000707000040408F
:1003300040404040010101000101000040404040B8
:10034000404001010109010101004040404040409E
:10035000010101090101010040404040404001010C
:10036000010001010100001D0001010101013F0028
:10037000000101000001010101012F01010005013F
:100380000100000206012B2D2C01000000010100DC
:100390000000000000000000000201010100000058
:1003A0000001010000000201010101000000010143
:1003B000010101010101010114000001010101011C
:1003C0002A010101010114000001010101010101E3
:1003D00001010101140000010101010101010101FC
:1003E00001010100000101010101010101010101FF
:1003F00000000000010100020101010101010000F3
:1004000000000000000002000101010000000000E7
:10041000000000000000000011000000001D0000AE
:1004200000000000000000000000000101010114B4
:10043000140000000101000000020001010101019F
:10044000002A010101000000000101010101010277
:100450000101010000000000010101010101010191
:100460000100000000000001010101010101010083
:100470000001010100000101010101010100000171
:10048000010101020000010101010100120101014D
:100490000100020001010101011E00010101010131
:1004A0000002000101010100000101010101000041
:1004B000000000141400000201010101010101000B
:1004C000000202000000020201010101010101001D
:1004D0000000000000000101010101010101000014
:1004E00000000101010101010101010101000014ED
:1004F0000101010101010101010101000001016F80
:100500000100000101010101140000290101011491
:1005100000010101010114000000010101140002A9
:1005200001010101000000000000000000000000C7
:1005300011000000001D000000000000000000008D
:1005400000000001010101010000000002000000A4
:1005500000010101010101010000002B0100000167
:10056000010101010101010000010100000101017F
:100570000001010101010001010000010101000071
:100580000101010100010100000101010100000160
:10059000010200010100000101010100001402003C
:1005A0000101010012010101140000000005010118
:1005B000011E000101010000000000000101010016
:1005C0000001010000000101010101010100000121
:1005D0000000010101010101010101000000000111
:1005E00001010101010101010100000014010101EB
:1005F00001010101010101000002010101010101EC
:100600000101010101000001010101010101012FAE
:10061000010101000001010101010101022D013070
:1006200001000001010101010102000001010100BE
:1006300000010101000000000000010102000011A2
:10064000000000000000000000000000001D00008D
:100650000000000000000000000000010101000097
:10066000020000010101000000010108010000007A
:100670000101010101000001080101140014010140
:10068000010101000000010101142B010101010120
:1006900001000000010101012E010101010108001A
:1006A0000001010101010101010101080100000136
:1006B000010101010101010100020100120101011A
:1006C0000101010101010000011E00000000010103
:1006D000010101010100000000000101010101010F
:1006E00001010101000000010101010101010101FD
:1006F00001010100000501010001010101010101E9
:1007000001000001010100000101010101010100DE
:1007100000000707020001010101010101000001C1
:1007200001010102000101010101010000010101BB
:10073000011400010101016E010000010101011419
:100740000000010101010100000101010100002B75
:100750000101010100000011000000000000000084
:1007600000000000001D000000000000000000006C
:100770000000000101012D2C2B00000014141400B6
:100780000001010101012E01010101141400000109
:100790000101010101010101012F1400000101010A
:1007A000010101010101012C1400000001010101FE
:1007B0000101010101011400000501010101000115
:1007C000010101010100000001010101000101011D
:1007D000010101000001010101010000010101010D
:1007E000011E0001010101010200000101010200DE
:1007F00000020101010101000000000000000001F1
:1008000001010101010100021402000000010101C7
:10081000140101010101010102000001012C2D015F
:1008200001010101010101000001010101010101BA
:1008300001010101010000010101010101010101AA
:10084000010101000001010101010101010101019A
:1008500001000001010102010101012F010101005C
:1008600000010102000000012B2C01011400001105
:100870000000000000000000000000000000000078
:100880001D00000000000000000000000201010146
:10089000010101010000000000001401010101013B
:1008A000010101000000000014010101010101012A
:1008B000010100000000010101010101010101012C
:1008C00002000000100101100001060101010100F9
:1008D00000140101010114000101010101000001E6
:1008E00001010101010000100101100012010101CC
:1008F00001011400000101010100000106010101D4
:1009000002000001010114000000010101010000CA
:10091000010101010000000000010100002422018A
:1009200001010000000000000000010101010101BF
:10093000140000001414140101010101010101005F
:10094000000E4040010101010101010101000040D0
:10095000403D010101010101010101000040403D54
:1009600001010101010101010000004040400101BD
:10097000010101010101000000001414143F0124D1
:100980002201010200000000000000000000000041
:100990000000000000000000000000000000000057
:1009A000000000020214C7C7C7C7C7C7C7C7C70030
:1009B0000D3E1301C7C7C7C7C7C7C7C7C700404059
:1009C0000101C7C7C7C7C7C7C7C7C70040400101A4
:1009D000C7C7C7C7C7C7C7C7C70000010101C7C787
:1009E000C7C7C7C7C7C7C70000140101C7C7C7C764
:1009F000C7C7C7C7C700000F0101C7C7C7C7C7C759
:100A0000C7C7C700000F0101C7C7C7C7C7C7C7C748
:100A1000C700000F0101C7C7C7C7C7C7C7C7C700FF
:100A20000001010110101010101010101000000231
:100A30000101010101010101010101000A0B010194
:100A4000010101010101010101000C40010101014D
:100A50000101010101010100404001010101010109
:100A60000101010101000001010101010101010178
:100A70000101010000020101010101010101010167
:100A80000100000201010101010101010101010058
:100A90000000021401010101010101010100000037
:100AA000000011000000000000000000E1AFA1E123
:100AB00000EF4D89E900EF2123EF00EF2565E70006
:100AC000EFA9A9EF00EF05050B00EF8585EF002FDB
:100AD000686808000000000100000100010000013A
:100AE00000010101010001000001000100000100FE
:100AF00001010101000001000000000100000000F0
:100B00000000EF8284EF00EF2929EF00E12F61E17F
:100B100000E0AF25250F00E18F81E100E0A020205B
:100B20000020E02020000000000000000001000084
:100B300001000101010100010000010001010101AA
:100B4000000000010000000101010100000100009F
:100B50000000000000000000E10F81E100E92F2902
:100B6000E900EFA1A34F00EF4DA9290060016F013B
:100B700001000F09090F0000000000000000000044
:100B8000000000010101010001010101000100005C
:100B90000100010000010001000100000000000050
:100BA0000000000000000000000000000000E1AFB5
:100BB000A14100EF0404EF002FED292900E040805F
:100BC000E0006060A0A00000000000000000000045
:100BD0000000000000000000000100000100010111
:100BE00001010001010101000100000100010101FA
:100BF00001000000000000000000000000000000F4
:100C0000000000002FE2242F002FE9292F00E1AF80
:100C1000A14100E0A0202000E02020C00000E080F2
:100C200080E000E0A020200020E020200000000064
:100C300001000000010101010001000001000101AB
:100C4000010100010101000000000100000001019C
:100C5000010100000100000000006B6BADAD002F32
:100C6000ED292900EF2D29E900EFA9A94600EBABFA
:100C70002D2D00000000000000000000000000001A
:100C8000000000000001010101000001000000015E
:100C9000010101000100000100010101010000004B
:100CA0000000000000000000000000000000000044
:100CB000EF29292D00EF8989EF00EF2929EF002F77
:100CC000E9292600E020202000E0A02020000000EC
:100CD0000000000000000000000000010101010010
:100CE00001000001000101010100010101010001F9
:100CF00001010100010101010000000000000000ED
:100D0000000000000000EFA2A4EF00EF4D89E90011
:100D1000EF8D89E9002FE9292600E08080E000209E
:100D2000E0202000E04080E000E02020A0002060E3
:100D3000600100000100010000010000010000004E
:100D4000000100000001000001000101010100019B
:100D50000000010001010101000001006F68A8A866
:100D6000002FED292900E1AFA1E100E1A0AB4B0D7F
:100D70002DE0202000000000000000000000000026
:100D8000000000000000000101010100000100005E
:100D9000000100000100010000010000010000004E
:100DA0000000000000000000000000000000000043
:100DB00000001F0E0400D5F08D14A1C881CFD9F119
:100DC000AF2000F0F89C8E8783878E9CF8F000009F
:100DD000FEFF0303030303070EFCF80000FEFF03FE
:100DE00003030303070EFCF80000FFFF00000000F0
:100DF000000000FFFF0000FEFF8383838383C7EEB4
:100E00007C380000F8FC0E07030303070EFCF80013
:100E1000003F7FE0C08080C0E07F3FFFFF01010115
:100E200001010101FFFF0000FFFF0C0C0C0C1C3E38
:100E300077E3C100007FFFC0C0C0C0C0E0703F1FAB
:100E400000001F3F70E0C0C0C0E0703F1F00007F87
:100E5000FFC1C1C1C1C1E3773E1C00001F3F70E06C
:100E6000C0C0C0E0703F1F000000000001FFFF0194
:100E7000000000070808070000090F080008000F1D
:100E8000090B0F000000000000000000000000003F
:100E90000000000000FF81BDA5B5B581FF0B0B0D63
:100EA0000D00010F0101000F05050F000F050D07D3
:100EB00000010F010101018181414121211111092D
:100EC0000905050301010181412111090503010102
:100ED0000101010101010103050911214181010104
:100EE00001030305050909111121214141818101F6
:100EF00001F008340202320202048408F001020404
:100F000004040404040504020178FECE0606CEFEA5
:100F10001C0000F8FCFCFC3C7C7CF800000000009D
:100F20000000010100FF323030101B67017000F932
:100F30003067600000000000000000207F0060704B
:100F40001C1A0B0303020A1A7C6040000000E01028
:100F5000680404640404088810E001020404040422
:100F600004040504020178FECE0606CEFE1C000035
:100F7000FCFEFE7E1EBE3EFC0000000000000001E4
:100F80000100FF323010180DB380B8007C18736078
:100F90000000000000000000207F0060781E0D05AA
:100FA000010101051D7E70400000000080808080EE
:100FB0008080000000000000000000000000000031
:100FC000000000000000000000000000C070381C9D
:100FD0001E0E0F0F0F0F1F1F3F7EFEFCF8F0C03FCD
:100FE0004040404040403F003844444444000404F2
:100FF0007C0404007C545444440004047C04040035
:101000000000000000000000000000000000C1FF20
:10101000FF7F1F0000000000000000000000000033
:101020000000000000FF020408102040FF00888834
:10103000F8888800F888A8A8C800F8202020F800C0
:101040000A0BFB09080000070605040100080A0B4B
:101050000C0D090303030303030303030303030347
:101060000303030303030303030303030303030350
:101070000303030303030303030303030303030340
:101080000303030303030303030303030303030330
:101090000303030303030303030303030303030320
:1010A0000303030303030303030303030303030310
:1010B000030303030303030303030303030300FC0A
:1010C000FECEE6F2F2F2E2C202060EFEFC000007DD
:1010D0000F0F0F0F0F0F0B0908FC9E9FFF00000062
:1010E000000000000000000000FF1919FF000000D0
:1010F000000000003C3C180000FFC0C0FF000000E2
:1011000000000000CFCF860000FF0303FF000000B7
:1011100000000000F3F3610000FF9898FF0000005A
:10112000000000003C3C180000FFF9F9FF0000003F
:1011300007070707030303000000010100000F0178
:10114000030F000800000F01030F000F0B0B090035
:101150000F02040F000F08080F000000000000003D
:101160000F080808000F09090F000F05050F000FF1
:101170000909060000000000000000000000000057
:1011800000000B0B0D0D000F05050F0007080807E9
:10119000000F0D0909000000000000000000000021
:1011A000000000000F02040F000F0B0B09000F08D6
:1011B0000C0F0000000F090906000F05050F0007BE
:1011C0000C04070000000F0B0B0E000F05050F00AD
:1011D0000F090909000F02050900000000000000C6
:1011E00000000000000000000F09090F000F0505B6
:1011F0000700010F010100090F0900000F09090F85
:10120000000F02040F000B0B0D0D0B0B0D0D000159
:101210000F0101000F05050F00010F0101000B0B6D
:101220000D0D000A0000000000000000CF4143CF78
:1012300000CF4949CF004FC2444F004FCD4949002C
:10124000C74C44C700C08000C000C0C04040F3810C
:10125000C1F100F39292F300F09390F000F28382D8
:1012600082000302020300030001030002020303E1
:101270003C242424003C14142C003C24243C003C3A
:1012800014141C002C2C343400000000000000005A
:1012900000000B0B0D0D000F0D0909000F0D0909C2
:1012A000000F090906000B0B0D0D000000000000E7
:1012B0000000000090D0B090000A0E0A3030FCFC14
:1012C00030300000FFFFFFFFFFFFFFFFFF00001CAB
:1012D0003C783C1C00002C6E343400007C54545488
:1012E000440000FFFF000000003C20203C002C2CAC
:1012F0003434003C34342400000000FFFF000000C0
:101300003C00040C1C0C0400000000000000003C29
:10131000000000FFFF0000003C0000000000000093
:10132000002030383020003C000000FFFF01BC15D9
:101330009C01BC21A001BC15BC01BC0DB03D8005C9
:10134000BC0581FFFF803D941D803DA021803D9420
:101350003D803D8C31BC01843D8401FFFF8025BC74
:10136000258005BC05803DB425803D8811883D80E1
:101370002DB401FFFF01A43DA401843D8401BC35CF
:10138000A401BC099009BC01AC3580FFFF01AC355C
:10139000801DA011BC01BC25A43D803D942D803D45
:1013A000A41980FFFF802DB4019C21903D803DA4B5
:1013B00025BC01BC15AC01BC259801FFFF802DB4F4
:1013C00001BC11BC01BC25803D943D803D942D8025
:1013D0002DB401FFFF01AC35803D903D803DA4015F
:1013E000BC15BC01BC15AC01AC3580FFFF819981F7
:1013F00099A58181BDC3BDADADB9C3BD8181A5999D
:10140000819981FFFF8181998199A581BDC3BDAD7E
:10141000ADB9C3BD81A59981998181FF002A542A64
:10142000542A540000542A542A542A0000038343A7
:101430002021204081000081402021202041800087
:1014400000070C12111110083C41413C0408090925
:101450000A04030000000700000700000700000066
:101460000000000000000000C070381C1E0E0F0FAE
:101470000F0F1F1F3F7EFEFCF8F0C0BCA4A4980015
:10148000800000800000000000C1FFFF7F1F0702F6
:101490000207000306020300000406030301000024
:1014A000000000000101008041E1E0E0A141800373
:1014B00003030300000000000000C021124C0000E4
:1014C0000C9221C00000000000000000000001029A
:1014D00004040404050402010000000000000000F0
:1014E00001010000010100030303834021F100001A
:1014F0000000000000009070E0D0A824120904024F
:1015000001000000000000000402010100000100D1
:1015100000000000000000000000000001010003C6
:101520000303834021A1602001810000000000002E
:10153000E090503020DFA422312824120907000057
:101540000000000000000006050403000000000089
:10155000000000000000000303030300010100007D
:10156000010180C0E161000000000000C0300C02F9
:10157000828448142CC20101000000000000000019
:10158000070405050402020101000000000000003C
:10159000000000010000C12020590404992020C14E
:1015A00000030303000000000000182543464848DC
:1015B00026010100000000000000000700000700F5
:1015C00000070000070000070000070000000001FE
:1015D0000000C12090C96868C99023C303000100BE
:1015E00000000000000003040933463C080904031E
:1015F00000000000000000070000070000070000D6
:10160000070000070000070000002071F81809100B
:101610002041804343231009D8783910000000008E
:1016200000010204086B1408080402010000000015
:101630000000000700000700000700000700000787
:10164000000007000000F011509021408303038048
:101650004120104928887900000000010204040894
:10166000083D413C0808040201000000000000079A
:10167000000007000007000007000007000000004E
:101680000000000100030303E031181839F0E00105
:1016900000000100000000000000000001033E42C5
:1016A0003F030100000000000000000700000700E9
:1016B00000070000070000000000000000E0100824
:1016C00004020282420101814121A1A1C1810202E1
:1016D0000206448404D2711F0F08F40C0447E6E2AA
:1016E000224103061FF8000020301C10C8080782A2
:1016F0007D0000000F102040909180808080C040CD
:1017000043FC00807A20609E8804030000000000F3
:101710000000000000081526242828282B29242250
:1017200032313C3E3F3F1E0C00C0E0F0F8FCFEFEB4
:10173000FEFEFFFFFFFFFFFFFFFFFFFEFEFEFEFCC2
:10174000FCFCFEFFFF3F3F3FFFFFFFFFFFFFFFFFF0
:10175000FFFFFFFFFFFFFFFFFFFFFFFFFFFFFFFF99
:10176000FB0000001E3F7FFFFFFFFFFFFFFFFFFFAB
:10177000FFFFFFFFFFFFFFFFFFBF9F0F07000000FE
:1017800000000000000103133B7FFFFFFFFFFFFF8E
:10179000FFFFFFFFFFFFFFFFFF7E3C18000101017D
:1017A00001CB4B4DCD00CF4D49C9004FC848480033
:1017B0004FC8484800C04F45C50FC08F08C8080033
:1017C0000F080808000000000000000000000000F2
:1017D0000000000000000000000000000000000009
:1017E000000000B3B1D1D100F31232F300F0535036
:1017F000F000F283828200F38282830003B0B1D3CF
:10180000D000F0D0909000F0D0909000F0909060D8
:101810000000F050507000F05050F000F0909090A8
:1018200000F02050903C2C2C3800243C2424003C18
:1018300024243400002C2C3434003C342424003C78
:10184000342424003C24241800003C14141C003CC4
:1018500014143C003C242424003C08142400000000
:1018600000000000000000CBCBCD8D00CF4444CF62
:1018700000CF4D494900CF8D4949000F05050700AC
:101880000000000000000000000000000000000058
:101890000000000000000000000000000000000048
:1018A000000000000000000000030202030003012A
:1018B0000103000302020200030001020000000015
:1018C0000000000000000000000000000000000018
:1018D0000000000000000000000000000000000008
:1018E0000000000000000000000000FFFFC3C3C3B1
:1018F000C3F3F30000FFFF33333333FFFF0000FF78
:10190000FF03030F0FFFFF0000FFFFCFCFCFCFC3B9
:10191000C30000FFFFC3C3C3C3FFFF00003F3FC0BE
:10192000C0C0C03F3F0000FFFFCFCFCFCFC3C30039
:1019300000FFFF3333F3F33F3F080B0002020200C6
:101940000009040000010202000005240010010546
:101950002401010104240206052406000107058173
:101960000310004009040100020A000000070502FC
:10197000024000000705830240000004030904122E
:10198000010002EF02014041233680000101020301
:101990000141726475696E6F204C4C430041726462
:1019A00075696E6F204C656F6E6172646F003C7676
:1019B000C3B1C10000003868D0D080C060380000DA
:1019C00000C1B1C3763C1C0603010B0B161C004082
:1019D000AE566A0405070000EE7E7E00000000405F
:1019E0002E56EA04050700006E7EFE000000070583
:1019F000046A56AE40000000007E7EEE000007053F
:101A000004EA562E4000000000FE7E6E000000102A
:101A10004C3B2E741C00001C742E3B4C10000070BC
:101A20006868787870000060505070706000000C3A
:101A30001C301C0C000000081830180800000000C2
:101A40000030000000000000000E7E0E00000000CC
:101A500000003C0000000000000038000000000012
:101A60000000200000000006163C3C1606000004A2
:101A700014383C1202000000083038040000000056
:101A80000010180000000000001008000000040A08
:101A90000A5428140E000000005028140E00000004
:101AA000004028140E000000084028140C0000001C
:101AB0000840201008000000084020120000000428
:101AC000084020020000000008000020000000087C
:101AD00000000020000000002000040000000004BE
:101AE00040000010000000000C526D2D120C000090
:101AF0000C526D15120C00000C526911120C0000F2
:101B00000C526101020C00000C5261010000000047
:101B10000C50600000000000085060000000000051
:101B200000506000000000000020300000000000B5
:101B30000000040C00000000181000000000002449
:101B40004E3B111B0E000020443806090D060020F4
:101B5000443806090B060020403804020400002027
:101B60004438040204000020403804000000002033
:101B7000403004080600002040200204020000005B
:101B80000008101800000000000C14000000000005
:101B9000302010000000FF04C42225C40404C22524
:101BA00024C404022594CC24222524242422A5E440
:101BB00064242225CC94240205C42424C20504C430
:101BC0002422C50404FFFFE081018101000001819E
:101BD00001010000C9247F801113171D191191D133
:101BE000713111807F24C9000001018101000001D1
:101BF00081010180C0FFFF29A9952B292929552B97
:101C0000292929552B292929552B292929292929E8
:101C1000292B552929292B552929292B55292929AA
:101C20002B55292929FFFE85080801FE3C0000806C
:101C30003C222222BC0000003CA222223C000000E8
:101C40003CB2263E3C0080003C2226AE3C00003CDC
:101C5000A222223C00FFFF10212100FF01F10968B0
:101C60002909F101F0F90DADAD2C2D2D2D2D2D2DC6
:101C70002D2C2D2D2D2D2C2D2D8DB950616151899F
:101C8000083D4DC9D16F3F51A2A2907F207F80991E
:101C9000A2807F20CF1F40885A915592428C449851
:101CA0004080306848848A4A51A122D2A858D4542E
:101CB00052956922BA5F80C0A0E0C0B0C0A080C0C9
:101CC000A0E0C0B8D8BCB4C0BCF8C0A0C0A0B5C328
:101CD000BDFBC7BDC3ADBDC3BDA1FFBDC3BDBDC3BE
:101CE000BDFFA1BDC3BD7EF5ADBFBEAE957E7E9DE1
:101CF000AABEBEA9A57E7EADA9BEBEA9AD7E00FCD2
:101D000086848486FC000056FF0909FF56000055B2
:101D1000FF0000FF550000D5BF8080BFD500003810
:101D200074627264380000386C62464C780000308F
:101D30005C464264780010307FFFFF7F3010183C13
:101D40007EFF3C3C3C3C1C34FC70707070201C34AA
:101D50007C707070F0201C36FE7C7E7E7C381C36D9
:101D60007E7C7E7EFC382070707070FC341C20F00D
:101D70007070707C341C387C7E7E7CFE361C38FC97
:101D80007E7E7C7E361C0000300814600000040853
:101D90003000006010000000002A2A2A2A00080CE7
:101DA000FEFFFFFE0C083C3C3C3CFF7E3C18000064
:101DB0006699996600007E95BF95BF957E00F008F4
:101DC00004324985C569310101020408F4040404A0
:101DD0000C1414141414141414141404FC0043B438
:101DE0004810202060A0A060202010C827282828A4
:101DF000282828C8080818688804E21DC000804008
:101E000020100884422113ECF020A7782024202001
:101E100020202078A720F0EC0B1020418000E0105B
:101E2000080808040404040404040484444448889E
:101E3000081422D11120EFD03E898181813E40409B
:101E4000404043444848CC464320D0EF00000202C3
:101E50008242C2424242424242C2448408F0474067
:101E60007F008141018141018141007F201F1F20AE
:101E700047485050584CF00804844242428200FEC9
:101E80003A2A2A2E3E00FC8289A9A9A182FC0000E0
:101E900081ABFF810000FE445454545410FE0012E4
:101EA00024796E341200000428726C1209000004B8
:101EB00008726D100800007050781C06120818286F
:101EC00048488884808000000000001C20408080FA
:101ED000808040201008042CC20202030501C123A7
:101EE000010202020204081020C000817A0480016D
:101EF000F00868FC000038C080601F02442424E41D
:101F000044060CF8000001FEEF9046712098B142A3
:101F10004F78C000FF2040C0808080809050201209
:101F20000F010E100F0000060D112021222234187F
:101F300011121C12151416150800000000000000F4
:101F400000008080808080C0E0F0F8FCFCFEFEFE97
:101F5000FFFFFFFFFFFFFEFEFEFEFCF8F0E0C0808B
:101F60000003F7FFFFFFFFFFFFFFFFFFFFFFFFFF84
:101F7000FFFFFFFFFFFFFFFFFFFFFFFFFFFFFFFC74
:101F8000DFFFFFFFFFFFFFFFFFFFFFFFFFFFFFFF81
:101F9000FFFFFFFFFFFFFFFF7F3F1F3F7F3F1F014F
:101FA000010F1F3F7FFFFFFFFFFF7F7F7F7F7F7F4F
:101FB0007F7F7F3B3B0100000000000000004020CD
:101FC0001C0000000000808084884848281878049D
:101FD00002010101010101010101010101010101F0
:101FE00001010101010101010101010101010101E1
:101FF00001010101010101010101010101010204CD
:102000007800000010101010101010101010101098
:1020100010101010101010101010101010101010C0
:1020200010101010101010101010101010101010B0
:1020300010000000F0F8FCFEFFFFFFFFFFFFFFFFB6
:10204000FFFFFFFFFFFFFFFFFFFFFFFFFFFFFFFFA0
:10205000FFFFFFFFFFFFFFFFFFFFFFFFFFFFFFFF90
:10206000FFFFFFFFFFFEFCF8F0070F1F3F7F7F7FA2
:102070007F7F7F7F7F7F7F7F7F7F7F7F7F7F7F7F70
:102080007F7F7F7F7F7F7F7F7F7F7F7F7F7F7F7F60
:102090007F7F7F7F7F7F7F7F7F7F3F1F0F0730782E
:1020A000F8F8F8F8FFFFFFFF000000010103030349
:1020B0000303FFFFFFFFF8F8F8F87830030303038A
:1020C00003010100000000000000000000FFFF000D
:1020D00000000000000080808080808080800101FE
:1020E00001010101010180808080808080FFFF80EC
:1020F00080808080808001010101010101FFFF01DA
:10210000010101010101C62811241FBECFEFDAE051
:10211000DEBFCDBF11E0A0E0B1E0E0E7FFE602C026
:1021200005900D92AE36B107D9F728E0AEE6B1E0E2
:1021300001C01D92A038B207E1F710E1C4E8D0E178
:1021400004C02197FE010E94B037C338D107C9F7F8
:102150000E9403290C94B6370C940000E0914B08C0
:10216000E93008F060C0F0E0E854FF4E0C94B0375E
:10217000C110DD10ED10091114111F113511471197
:10218000551180914F0881110BC083E08093440862
:1021900082E080934508109247081092480843C097
:1021A000813009F040C08BE08093440884E0809344
:1021B000450887E080934708F0CF80914F08811150
:1021C00005C081E08093440884E0E3CF823059F574
:1021D00088E08093440881E0DCCF80914F08813013
:1021E00059F488E08093440886E080934508109273
:1021F0004708809348080895833021F481E0809354
:102200004408C7CF843079F48BE08093440881E0A0
:10221000CECF80914F08853021F3843079F382301E
:1022200099F38730A9F2089580914F088730C9F259
:10223000823021F3833041F38530A9F7C9CF8091F3
:102240004F08843071F2863059F48BE08093440853
:1022500084E08093450887E08093470886E0C9CFF3
:10226000873061F28330F9F6B3CF80914F08873021
:1022700061F3853049F481E08093440884E08093E1
:10228000450810924708EACF883069F6A1CF8091BF
:102290004F08833009F4A5CF853009F4B5CF8630D7
:1022A00051F3843009F0BFCF93CF8AE08093440884
:1022B00082E07DCFE8E9F1E0A0E0B8E000800EBC6C
:1022C0008111012C1197A0FDFDCF0192B9F70DB43A
:1022D000089580939701EDE0F6E01082128210924B
:1022E000100682E38093960108958091460881301C
:1022F000E1F038F0823069F1833009F453C080E0B6
:1023000050C08091450890914808482F490F5527A3
:10231000551F452BA1F32091440830914708230F06
:1023200030E0890F815090E028C0209144088091CE
:102330004708622F680F7727771F280F2F5F6331B9
:102340007105ECF630E08091450890914808890FBE
:10235000EACF8091450890914808482F490F5527AA
:10236000551F4D3051055CF6890F8F5F90E020912D
:10237000440830914708230F30E040914B08411149
:102380001FC06EE0629FA001639F500D11244C5E40
:10239000594F840F951FFC01908181E0973C09F013
:1023A000AECF08952091440880914708622F680FAE
:1023B0007727771F672B09F4A2CF280F2150C2CFB0
:1023C0004EE0429FF001439FF00D1124E80FF91FEA
:1023D000E45DF84FE1CFCF93DF9350E030E0B09170
:1023E0004B08E091440890914708E90FFF27FF1F31
:1023F0004E175F07B9F5E091450890914808E90F3D
:10240000FF27FF1FE217F30769F5282F30E070E080
:10241000B1111DC04EE0429FC001439F900D112499
:102420008C5E994F680F791FFB0180818D7F883703
:1024300059F4809198058150990B97FD80E0809325
:1024400098058AE08093BC05DF91CF9108958EE0D6
:10245000829FF001839FF00D1124E60FF71FE45DCA
:10246000F84FE3CFEEE0E49FE001E59FD00D1124AB
:10247000B1112DC0CC5ED94FC20FD31F9881963CAD
:1024800019F7E89FF0011124EC5EF94FE60FF11DFA
:10249000A081AF5F90E070E0B1112BC0BEE0B49FAF
:1024A000F001B59FF00D1124EC5EF94F2E0F3F1F88
:1024B000F901A083B89F9001B99F300D11242C5EC3
:1024C000394F620F731F86ECFB018083BDCFC20FB3
:1024D000D31FC45DD84F9881963C09F0B5CFE89FD3
:1024E000F0011124EC5EF94FE60FF11DE85EFE4F9E
:1024F000CFCFBEE0B49FF001B59FF00D1124E20FE5
:10250000F31FE45DF84FA083B89FF001B99FF00D71
:102510001124E60FF71FE45DF84F86ECD6CFFC01DF
:1025200080919401882311F13FB7F89482E0809361
:10253000E9002091F200822F90E01816190614F499
:1025400081E090E0882339F0289844E64093930195
:102550004091F1004083222339F02091F2002111B3
:1025600003C02BE62093E8003FBF08958FEF9FEF55
:1025700008952FB7F89483E08093E9009091E800E4
:10258000892F807295FF04C09091F20080E4891B2E
:102590002FBF089580918B0181110DC082E080933F
:1025A000870184E08093880110928A01109289014A
:1025B00081E080938B0187E891E00895CF93DF93CA
:1025C0001F92CDB7DEB76983DC01ED91FC910280EB
:1025D000F381E02D41E050E0BE016F5F7F4F099530
:1025E0000F90DF91CF91089583E08093E90080916F
:1025F000F200882319F08AE38093E80008950E948E
:10260000B91290E00895CF93DF931F92CDB7DEB754
:10261000FC018485958597FD08C02FEF3FEF358736
:1026200024870F90DF91CF910895CE0101960E94EB
:102630008F12019719F4898190E0F3CF8FEF9FEF0C
:10264000F0CF0F931F93CF93DF931F92CDB7DEB7D9
:102650008C01FC018485958597FF0BC0CE01019606
:102660000E948F12019771F4898190E0F80195879B
:102670008487F801848595850F90DF91CF911F9114
:102680000F9108958FEF9FEFF1CFFC018485958521
:1026900097FD0BC09FB7F89482E08093E90080918A
:1026A000F2009FBF90E0019608959FB7F89482E0F2
:1026B0008093E9008091F2009FBF90E008954091DF
:1026C00081015091820120917F0130918001421758
:1026D0005307B4F49091E8009570E1F39091E8000D
:1026E00092FD19C08093F100809181019091820147
:1026F00001968F739927892B19F48EEF8093E80048
:102700008091810190918201019690938201809342
:10271000810181E0089580E00895DF92EF92FF92B9
:102720000F931F93CF93DF93D82E8A01EB017B0188
:10273000E40EF51ECE15DF0559F0D7FE12C0FE01DE
:1027400084910E945F1321968111F4CF0FEF1FEF48
:10275000C801DF91CF911F910F91FF90EF90DF9013
:1027600008958881EECF0F931F93CF93DF931F922D
:10277000CDB7DEB782E0898342E450E069E379E1D6
:1027800080E80E948D130E94CA12DC0112960D91FE
:102790001C910115110589F0D801ED91FC91028081
:1027A000F381E02DBE016F5F7F4FC801099597FD52
:1027B00004C0F80100851185ECCF89810F90DF916D
:1027C000CF911F910F910895615030F02091F10049
:1027D000FC0120830196F8CF289884E6809393012A
:1027E00008953FB7F89480916F0190917001A09186
:1027F0007101B091720126B5A89B05C02F3F19F059
:102800000196A11DB11D3FBFBA2FA92F982F882770
:10281000BC01CD01620F711D811D911D42E0660F4B
:10282000771F881F991F4A95D1F708958F929F921D
:10283000AF92BF92CF92DF92EF92FF926B017C0139
:102840000E94F1134B015C01C114D104E104F104B5
:10285000B9F00E94F113681979098A099B09683E49
:1028600073408105910580F321E0C21AD108E10887
:10287000F10888EE880E83E0981EA11CB11CE4CFFD
:10288000FF90EF90DF90CF90BF90AF909F908F9090
:1028900008958F929F92AF92BF92CF92DF92EF9264
:1028A000FF920F931F93CF93DF936C017B018A01FB
:1028B00080910C01882309F45CC0809194018823E5
:1028C00009F457C08091860180FF05C08091E00027
:1028D00082608093E000E801B12C8AEFA82E93E09B
:1028E000892E2AE3922E209711F4BB20D9F10E9461
:1028F000B91281110AC0AA94AA20D9F161E070E04E
:1029000080E090E00E941614EECF8C171D0611F0A7
:102910000CF08C2F9FB7F8948092E9002091E8008A
:1029200025FD02C09FBFDFCF282F30E0C21BD30B95
:10293000F701815020F041914093F100FACFE20E6F
:10294000F31EBB2021F09092E800B12CEBCF8091D8
:10295000E80085FDE7CF9092E800BB24B394209770
:1029600009F3F3CF5D9884E6809385011016110674
:102970003CF081E090E0F6019383828310E000E078
:10298000C801DF91CF911F910F91FF90EF90DF90E1
:10299000CF90BF90AF909F908F9008952D9A0895FB
:1029A000BC0190E080E00C9416148FB18095807F7C
:1029B000669B88601C9B84600895909173019823A6
:1029C00029F490917401982381E009F480E008953E
:1029D000CF93C82F0E94D514982F9C2381E09C137D
:1029E00080E0CF9108951F93CF93DF93D82F10915C
:1029F00049080E94DD14C82F112359F0811106C027
:102A0000C0E08C2FDF91CF911F910895109249085B
:102A1000F8CF882329F082E080935008C1E0F1CFFD
:102A20008D2F0E94E814882321F08091500888237C
:102A300091F38D2F0E94E814882311F380915008A0
:102A40008823F1F2815080935008DBCF3F924F9260
:102A50005F926F927F928F929F92AF92BF92CF922E
:102A6000DF92EF92FF920F931F93CF93DF9330E0AB
:102A7000F901E80FF91F1E161F060CF0C1C08038BF
:102A800091050CF0BDC0FB01E00FF11D1E161F06E5
:102A90000CF0B6C0603471050CF0B2C0DB0177FFFA
:102AA00004C0AA27BB27A61BB70BA770BB27FB0137
:102AB00077FD3796C3E0F595E795CA95E1F777FF7F
:102AC00007C0319768E070E0EB01CA1BDB0BDE0149
:102AD000402E469446944694512C077019F0DFEF2F
:102AE0004D1A5D0ABF01EF01D695DC2FCC27D79593
:102AF000C795C80FD91FC856DE4F8A01460E571E0C
:102B000048E050E04A018A1A9B0A4616570609F423
:102B100077C06830710509F473C06F3FEFEF7E072F
:102B20000CF44BC06C0150E040E03E01E0E86E0E5A
:102B3000711CD7FC35C06F3F760709F45DC05E019C
:102B4000A40EB51EF501F080F801E40FF51F332443
:102B50003394E31039C0E4910A2E01C0EE0F0A94B9
:102B6000EAF7FE2AF501F0821097D1F0673071057F
:102B7000B9F05301A40EB51EF501F080FA01E00F83
:102B8000F11F33243394E3102BC0E491F0E0082CC0
:102B900002C0F595E7950A94E2F7FE2AF501F08266
:102BA0004F5F5F4FFFEFCF1ADF0A421753072CF436
:102BB000F0E8CF16D10409F0BCCF6F5F7F4FC0584B
:102BC000DF4F020F131FA1CFE491F0E00A2E02C0E5
:102BD000EE0FFF1F0A94E2F7E095F095FE22C2CFB8
:102BE000E491F0E0082C02C0F595E7950A94E2F72D
:102BF000E095F095FE22D2CF109709F0BACFD0CF52
:102C0000DF91CF911F910F91FF90EF90DF90CF90C8
:102C1000BF90AF909F908F907F906F905F904F90FC
:102C20003F900895EF920F93CF93DF93EE24E394B8
:102C300008E028E04EEF50E270E060E090E080E0D5
:102C40000E94261528E046EF50E270E060E088E739
:102C500090E00E94261528E04EEE50E268E370E016
:102C600090E080E00E94261528E046EE50E268E3FE
:102C700070E088E790E00E942615C8E0D0E0EE24DE
:102C8000E39408E028E04EED50E270E060E0CE0111
:102C90000E94261528E046ED50E268E370E0CE0180
:102CA0000E9426152896C837D10549F7C8E0D0E01C
:102CB000EE24E39408E028E04EEC50E2BE0190E000
:102CC00080E00E94261528E046EC50E2BE0188E72D
:102CD00090E00E9426152896C833D10549F7DF9168
:102CE000CF910F91EF900895EF920F93E12C0AE0AE
:102CF0002AE042EB50E265E370E087E590E00E9455
:102D000026152AE04EE950E265E370E082E290E0A9
:102D10000E9426150FE025E344E350E260E370E0F3
:102D200087E290E00E942615EE24E3940DE023E371
:102D30004EEC5FE161E370E088E290E00E942615CE
:102D4000809164084EEB5FE1882311F046EC5FE16F
:102D5000EE24E39408E028E066E370E088E590E084
:102D60000E942615809164084EEB5EE1882311F0E5
:102D700046EC5EE1EE24E39408E028E066E370E0D0
:102D800083E290E00E942615E0916508F0E0EE0FE6
:102D9000FF1FEC59F74F438154810DE02BE263E3B1
:102DA00070E08CE290E00E942615E12C00E22FE119
:102DB00042E45FE163E270E083E090E00E94261568
:102DC000EE24E3940EE12DE14EEC5EE164E270E06E
:102DD00084E090E00E9426150F91EF900895EF9205
:102DE0000F93CF93DF93EE24E39408E028E04EEFB7
:102DF00050E270E060E088E690E00E94261528E04E
:102E00004EEE50E268E370E088E690E00E942615FE
:102E100028E04EED50E270E060E080E790E00E9434
:102E2000261528E046ED50E268E370E080E790E088
:102E30000E94261528E046EF50E270E060E088E747
:102E400090E00E94261528E046EE50E268E370E02C
:102E500088E790E00E942615C8E0D0E0EE24E394D5
:102E600008E028E04EEC50E2BE0188E690E00E94C7
:102E7000261528E046EC50E2BE0188E790E00E946B
:102E800026152896C833D10549F7DF91CF910F91C8
:102E9000EF900895EF920F9390919E05491780F05F
:102EA00038E0639FB0011124EE24E39408E028E0A9
:102EB00046EB5EE138E0839FC00111240E94261595
:102EC0000F91EF900895EF920F9390914D082091FC
:102ED000950160914508809144082830D8F49230DB
:102EE00031F490914C0846EF59E1923010F44EEED7
:102EF00059E138E0639FB0011124EE24E39408E027
:102F000028E038E0839FC00111240E9426150F910C
:102F1000EF900895923031F490914C0846E05AE1D8
:102F2000923010F44EEF59E198E0699FB0011124FE
:102F3000E4CFEF920F9390914D082091950160910D
:102F40004508809144082830D8F4923031F49091AB
:102F50004C0846ED59E1923010F44EEC59E138E05E
:102F6000639FB0011124EE24E39408E028E038E0E8
:102F7000839FC00111240E9426150F91EF900895A0
:102F8000923031F490914C0846EE59E1923010F4B1
:102F90004EED59E198E0699FB0011124E4CF8038EB
:102FA0009105B8F460347105A0F420E191E061FD71
:102FB00094E060FD990F62FD9295687F269FD00195
:102FC0001124A80FA856BE4F8C9140FF03C0892B37
:102FD0008C93089590958923FBCFEF920F93FC017A
:102FE000862F342F9E2D9130B1F038F09230E9F0D9
:102FF000933001F10F91EF90089562817381620F18
:10300000711D208131814481820F932F911D0F9179
:10301000EF900C94CF1762817381620F711D8081D4
:1030200091814481830F911DF2CF62817381600F82
:10303000711DE7CF62817381600F711DF0CFEF9238
:103040000F93CF93DF934A30510561057105C0F4AA
:10305000E22EEC01FA01E15DF74E0C94B03739181D
:1030600045184A1853184D18561861185B186C18F3
:10307000671803E020E041E062E0CE010E94ED1716
:10308000DF91CF910F91EF90089503E020E040E0B1
:1030900063E0F3CF02E021E0EECF40E050E0BA0180
:1030A000CE010E941F1802E021E0F1CF41E050E084
:1030B00060E070E0F5CF40E050E0BA01CE010E9440
:1030C0001F182E2D42E050E060E070E0E9CF40E0B4
:1030D00050E0BA010E941F182E2D41E050E060E040
:1030E00070E0ECCF4F925F926F927F928F929F929F
:1030F000AF92BF92CF92DF92EF92FF92CF934B01AC
:103100005C01B7FE08C0B094A09490948094811C98
:10311000911CA11CB11C8AE0C82ED12CE12CF12CF1
:10312000C0E0C501B401A70196010E9457372B01E9
:103130003C0140E050E0BA014114510461047104C3
:1031400071F0C701B6012AE030E040E050E00E9493
:103150005737C301B2010E945737BA01A9012C2F7A
:1031600089E798E00E941F18AAE0B0E0A701960145
:103170000E9444376B017C01CF5FC43091F6CF9140
:10318000FF90EF90DF90CF90BF90AF909F908F9087
:103190007F906F905F904F90089582E390E00E943F
:1031A000D0140E94D5148111F8CF0895EF920F9397
:1031B000962FE42FE150FF0BBF01289F600D711D7A
:1031C0001124EE24E39405E024E042EB5DE0892F36
:1031D00090E00E9426150F91EF90089588E00E94DC
:1031E000DD14811103C080E20C94DD14089584E0A5
:1031F0000E94DD14811103C080E40C94DD14089555
:10320000FC01208131812F5F3F4F2031F7E23F07E2
:1032100010F02FE037E2FC01318320830895DF9224
:10322000EF92FF920F931F93CF93DF934091460845
:10323000FF24F394DD24D394443050F4842F90E0A1
:10324000FC01EF5AFE4FD080835B9E4FFC01F08063
:103250001091450800914808C0914408E090470843
:1032600050914B088C2F8E0D81508D0D90E0212FA9
:10327000200F21502F0D30E06EE0689FF001699F14
:10328000F00D1124511113C0EC5EF94FE20FF31F42
:10329000D08160914D08613009F42AC168F0623034
:1032A00009F44DC1633009F4D3C1D0E018C1E20F75
:1032B000F31FE45DF84FECCFD0919B05DD2309F4BB
:1032C00000C15111F2CF0E947511882371F38091D2
:1032D0004E08823009F483C038F4882389F18130A4
:1032E00009F457C0D1E0FBC0843009F4C4C008F42D
:1032F0009CC08530B9F78091A9059091AA050097E7
:1033000089F301979093AA058093A905EC2FEE0D00
:10331000FF27FF1F9F012D0D311D215031098EE028
:10332000829FF001839FF00D1124EC5EF94FE10FB5
:10333000F11DE00FF11DEF0DF11D319781E424C067
:1033400080919F059091A005009761F2019790935D
:10335000A00580939F058C2F8E0D9927991F9C01A6
:103360002D0D311D215031098EE0829FF001839F88
:10337000F00D1124EC5EF94FE10FF11DE00FF11D8E
:10338000EF0DF11D31978BE68083D150D0939B05D3
:10339000A9CF8091A1059091A205009709F4A2CF31
:1033A00001979093A2058093A105EC2FEE0DFF27C6
:1033B000FF1F9F012D0D311D215031098EE0829F8D
:1033C000F001839FF00D1124EC5EF94FE10FF11D28
:1033D000E00FF11DEF0DF11D319787E6D5CF8091FC
:1033E000A3059091A405009709F47CCF01979093D1
:1033F000A4058093A3058C2F8E0D9927991F9C01FE
:103400002D0D311D215031098EE0829FF001839FE7
:10341000F00D1124EC5EF94FE10FF11DE00FF11DED
:10342000EF0DF11D319782E6AFCF8091A505909108
:10343000A605009709F456CF01979093A6058093AF
:10344000A505EC2FEE0DFF27FF1F9F012D0D311D50
:10345000215031098EE0829FF001839FF00D1124ED
:10346000EC5EF94FE10FF11DE00FF11DEF0DF11DC5
:10347000319787E589CF8091A7059091A80500979E
:1034800009F430CF01979093A8058093A7058C2F5E
:103490008E0D9927991F9C012D0D311D2150310949
:1034A0008EE0829FF001839FF00D1124EC5EF94FB6
:1034B000E10FF11DE00FF11DEF0DF11D31978CE4CF
:1034C00063CF80919805823008F4EFCE81508093CD
:1034D00098058AE08093BC0585E080937F088D2F56
:1034E000DF91CF911F910F91FF90EF90DF900895A2
:1034F000D53119F0D93109F0D8CEDE5F511114C0A1
:103500006EE0689FA001699F500D11244C5E594FD9
:10351000240F351FF901D0838AEB95E00E94001932
:1035200085E080937E08DECE4EE0489FF001499F03
:10353000F00D1124E20FF31FE45DF84FECCF4130A2
:1035400009F443C060F1423009F452C0433009F439
:1035500063C0D857DE3408F0A8CED0914B08209134
:103560004408C09147082C0F21502D0D30E0809168
:10357000450890914808890F81508F0D90E0D11136
:103580005AC06EE0629FA001639F500D11244C5EF3
:10359000594F840F951F26ECFC012083A0CF212FCB
:1035A0002150330BB90153E0660F771F5A95E1F7AD
:1035B000EE24E39408E028E046EC59E138E0C39FAC
:1035C000C00111240E942615C4CF88E0189FB001C5
:1035D00011248C2F90E00196EE24E39408E028E07B
:1035E0004EEB59E133E0880F991F3A95E1F7EACFA6
:1035F000612F70E06F5F7F4F43E0660F771F4A9542
:10360000E1F7EE24E39408E028E046EB59E1E8E036
:10361000CE9FC0011124D6CFF8E01F9FB001112426
:103620002C2F2150330BC901EE24E39408E028E04D
:103630004EEA59E1D7CF4EE0429FF001439FF00D93
:103640001124E80FF91FE45DF84F86EC80832DCE3E
:103650008091AC059091AD05009709F426CE20919C
:103660009805293008F021CE8130910549F0019765
:103670009093AD058093AC052F5F2093980515CEF0
:1036800090E080E0F5CFCF93DF93EC0180E80E94DB
:10369000DD14882329F08881882311F081508883E4
:1036A00080E10E94DD14882331F088819981891797
:1036B00010F48F5F8883DF91CF9108954F925F92CE
:1036C0006F927F928F929F92AF92BF92CF92DF9232
:1036D000EF920F931F93CF93DF934A0157FF03C0DD
:1036E000919481949108C82ED12CE60164969AE0B9
:1036F000A92EB12C2AE0622E712C462E512C1AE0F4
:10370000C401B5010E9488379C0170E060E0892BFC
:1037100039F0C501B3010E948837C9010E9488377A
:10372000660F771FFB01E75CFE4F40815181EE245D
:10373000E39404E024E0B201CE010E942615C50105
:10374000189F5001199FB00C11242597CC16DD0647
:10375000B9F6DF91CF911F910F91EF90DF90CF904D
:10376000BF90AF909F908F907F906F905F904F90A1
:1037700008955F926F927F928F929F92AF92BF92C5
:10378000CF92DF92EF92FF920F931F93CF93DF932D
:103790006C014EEA56E028E036EC84E090E0FA0155
:1037A000E80FF91F308301968D309105C1F7215044
:1037B000425F5F4F2111F1CFB12CA12C88E0E82EA0
:1037C000F12C9EE0592E24E1822E09E010E035E133
:1037D000932EF6018081A81618F53501FBE06F0ED7
:1037E000711C0E945236B7010E949C37569CE00122
:1037F000579CD00D1124CC5ED94FFE01E80FF91F64
:1038000085820E945236B8010E949C37C80FD91F8A
:103810009C828FEFA81AB80AE8E0AE16B104C9F688
:10382000DF91CF911F910F91FF90EF90DF90CF909C
:10383000BF90AF909F908F907F906F905F90089512
:10384000CF93DF9390919E05491720F1C62FD82F73
:103850000E94523648E0D49F900111242E5F3F4FC2
:1038600030937A082093790828E0C29FB001112490
:103870006E5F7F4F70937C0860937B0860E177E216
:103880000E949C37BC01990F880B990BDF91CF9157
:103890000C947218DF91CF910895CF92DF92EF923E
:1038A0000F931F93CF93DF93E62F622F90914408DD
:1038B000941305C090914508921709F4B1C0082FE0
:1038C00010E0F0E080914B0881118FC08EE0809F66
:1038D000D001819FB00D1124AC5EB94FEA0FFB1FE0
:1038E000E081EB3708F09CC0842FF0E0E658F34EFF
:1038F0000C94B037001D181D231D2E1D391D441DAD
:103900004F1D5A1D641D661D681D731D7E1D891D7A
:10391000941D9F1DAA1DB51DC51DD51DE01DF11DC2
:10392000101DFA1D101D031E101D0C1E101D151E4E
:10393000251E351E401E4B1E561E611E6C1E771E18
:10394000101D101DAA1EB51EC01ECB1ED61EE11EC8
:10395000EC1EF71E021F0D1F101D101D101D101D47
:10396000101D181F101D101D101D101D101D101DE5
:10397000101D101D101D1A1F251F301F3B1F461F35
:10398000511F5C1F671F721F7D1F881F931F9E1F83
:10399000A91FB41FBF1FCA1FD51FE01FEB1FF61FB3
:1039A00001200C20172022202D20382043204E20DB
:1039B000592064206F207A20852090209B20A6200B
:1039C000B120BC20C720D220DD20E820F320FE203B
:1039D000092113211521101D101D101D101D101D72
:1039E000101D101D1721101D21212EE0209FC00148
:1039F000219F900D1124E80FF91FE45DF84F70CF5F
:103A000028E0629FB0011124EE24E39408E028E04E
:103A10004EEA5EE138E0839FC00111240E94261522
:103A2000DF91CF911F910F91EF90DF90CF9008958C
:103A300098E0699FB0011124EE24E39408E028E0A7
:103A400046EA5EE1E7CF98E0699FB0011124EE24D9
:103A5000E39408E028E04EE95EE1DCCF98E0699F5E
:103A6000B0011124EE24E39408E028E046E95EE189
:103A7000D1CF98E0699FB0011124EE24E39408E0CF
:103A800028E04EE85EE1C6CF98E0699FB0011124BE
:103A9000EE24E39408E028E046E85EE1BBCF98E03E
:103AA000699FB0011124EE24E39408E028E04EE77A
:103AB0005EE1B0CF40E0DF91CF911F910F91EF9089
:103AC000DF90CF900C94201C41E0F5CF42E0F3CF83
:103AD00098E0699FB0011124EE24E39408E028E007
:103AE00046E75EE197CF98E0699FB0011124EE248C
:103AF000E39408E028E04EE65EE18CCF98E0699F11
:103B0000B0011124EE24E39400E120E14EE45EE1F3
:103B100081CF98E0699FB0011124EE24E39400E185
:103B200028E14EE15EE176CF98E0699FB001112473
:103B3000EE24E39408E120E24EEB5DE16BCF98E0E8
:103B4000699FB0011124EE24E39408E028E046EBDD
:103B50005DE160CF98E0699FB0011124EE24E39409
:103B600008E028E04EEA5DE155CF9091950198304C
:103B700008F056CF98E0699FB0011124EE24E39439
:103B800008E028E046EA5DE145CF90919501983044
:103B900008F046CF98E0699FB0011124EE24E39429
:103BA00008E028E04EE95DE135CF98E0699FB0017B
:103BB0001124EE24E39408E028E046E95DE12ACFF1
:103BC000909195014EE85DE1983010F046E85DE196
:103BD00098E0699FB0011124EE24E39408E028E006
:103BE00019CF909195014EE75DE1983088F346E753
:103BF0005DE1EECF909195014EE65DE1983040F3A6
:103C000046E65DE1E5CF909195014EE55DE19830A6
:103C1000F8F246E55DE1DCCF909195014EE45DE17F
:103C20009830B0F246E45DE1D3CF909195019830A1
:103C300008F0F6CE98E0699FB0011124EE24E394D9
:103C400008E028E04EE35DE1E5CE909195019830E3
:103C500008F0E6CE98E0699FB0011124EE24E394C9
:103C600008E028E046E35DE1D5CE98E0699FB00129
:103C70001124EE24E39408E028E04EE25DE1CACE90
:103C800098E0699FB0011124EE24E39408E028E055
:103C900046E25DE1BFCE98E0699FB0011124EE24B9
:103CA000E39408E028E04EE15DE1B4CE98E0699F3E
:103CB000B0011124EE24E39408E028E046E15DE140
:103CC000A9CE98E0699FB0011124EE24E39408E0A6
:103CD00028E04EE05DE19ECE98E0699FB00111249E
:103CE000EE24E39408E028E046E05DE193CE98E01E
:103CF000699FE001112428E0429F60011124EE2415
:103D0000E39408E028E04EEF5CE1BE01C6010E94AA
:103D100026156091990570919A05603137E2730715
:103D200010F06FE077E290E080E022E0C20ED11C5C
:103D3000D0927A08C09279082396D0937C08C093D9
:103D40007B08DF91CF911F910F91EF90DF90CF9083
:103D50000C94721838E0639FB0011124EE24E394B0
:103D600008E028E046EF5CE155CE98E0699FB0019D
:103D70001124EE24E39408E028E04EEE5CE14ACE04
:103D800098E0699FB0011124EE24E39408E028E054
:103D900046EE5CE13FCE98E0699FB0011124EE242D
:103DA000E39408E028E04EED5CE134CE98E0699FB2
:103DB000B0011124EE24E39408E028E046ED5CE134
:103DC00029CE98E0699FB0011124EE24E39408E025
:103DD00028E04EEC5CE11ECE98E0699FB001112412
:103DE000EE24E39408E028E046EC5CE113CE98E092
:103DF000699FB0011124EE24E39408E028E04EEB23
:103E00005CE108CE98E0699FB0011124EE24E394B0
:103E100008E028E046EB5CE1FDCD98E0699FB00149
:103E20001124EE24E39400E320E346E95BE1F2CDC4
:103E300043E041CE98E0699FB0011124EE24E39461
:103E400008E028E04EE85BE1E5CD98E0699FB0012D
:103E50001124EE24E39408E028E046E85BE1DACDA3
:103E600098E0699FB0011124EE24E39408E028E073
:103E70004EE75BE1CFCD98E0699FB0011124EE24BD
:103E8000E39408E028E046E75BE1C4CD98E0699F51
:103E9000B0011124EE24E39408E028E04EE65BE153
:103EA000B9CD98E0699FB0011124EE24E39408E0B5
:103EB00028E046E65BE1AECD98E0699FB0011124B1
:103EC000EE24E39408E028E04EE55BE1A3CD98E022
:103ED000699FB0011124EE24E39408E028E046E550
:103EE0005BE198CD98E0699FB0011124EE24E39442
:103EF00008E028E04EE45BE18DCD98E0699FB001D9
:103F00001124EE24E39408E028E046E45BE182CD4E
:103F100098E0699FB0011124EE24E39408E028E0C2
:103F20004EE35BE177CD98E0699FB0011124EE2468
:103F3000E39408E028E046E35BE16CCD98E0699FFC
:103F4000B0011124EE24E39408E028E04EE25BE1A6
:103F500061CD98E0699FB0011124EE24E39408E05C
:103F600028E046E25BE156CD98E0699FB00111245C
:103F7000EE24E39408E028E04EE15BE14BCD98E0CD
:103F8000699FB0011124EE24E39408E028E046E1A3
:103F90005BE140CD98E0699FB0011124EE24E394E9
:103FA00008E028E04EE05BE135CD98E0699FB00184
:103FB0001124EE24E39408E028E046E05BE12ACDFA
:103FC00098E0699FB0011124EE24E39408E028E012
:103FD0004EEF5AE11FCD98E0699FB0011124EE2405
:103FE000E39408E028E046EF5AE114CD98E0699F99
:103FF000B0011124EE24E39408E028E04EEE5AE1EB
:1040000009CD98E0699FB0011124EE24E39408E003
:1040100028E046EE5AE1FECC98E0699FB0011124F9
:10402000EE24E39408E028E04EED5AE1F3CC98E06A
:10403000699FB0011124EE24E39408E028E046EDE6
:104040005AE1E8CC98E0699FB0011124EE24E39492
:1040500008E028E04EEC5AE1DDCC98E0699FB00121
:104060001124EE24E39408E028E046EC5AE1D2CC97
:1040700098E0699FB0011124EE24E39408E028E061
:104080004EEB5AE1C7CC98E0699FB0011124EE24B1
:10409000E39408E028E046EB5AE1BCCC98E0699F45
:1040A000B0011124EE24E39408E028E04EEA5AE13E
:1040B000B1CC98E0699FB0011124EE24E39408E0AC
:1040C00028E046EA5AE1A6CC98E0699FB0011124A5
:1040D000EE24E39408E028E04EE95AE19BCC98E016
:1040E000699FB0011124EE24E39408E028E046E93A
:1040F0005AE190CC98E0699FB0011124EE24E3943A
:1041000008E028E04EE85AE185CC98E0699FB001CC
:104110001124EE24E39408E028E046E85AE17ACC42
:1041200098E0699FB0011124EE24E39408E028E0B0
:104130004EE75AE16FCC98E0699FB0011124EE245C
:10414000E39408E028E046E75AE164CC98E0699FF0
:10415000B0011124EE24E39408E028E04EE65AE191
:1041600059CC98E0699FB0011124EE24E39408E053
:1041700028E046E65AE14ECC98E0699FB001112450
:10418000EE24E39408E028E04EE55AE143CC98E0C1
:10419000699FB0011124EE24E39408E028E046E58D
:1041A0005AE138CC98E0699FB0011124EE24E394E1
:1041B00008E028E04EE45AE12DCC98E0699FB00178
:1041C0001124EE24E39408E028E046E45AE122CCEE
:1041D00098E0699FB0011124EE24E39408E028E000
:1041E0004EE35AE117CC98E0699FB0011124EE2408
:1041F000E39408E028E046E35AE10CCC98E0699F9C
:10420000B0011124EE24E39408E028E04EE25AE1E4
:1042100001CC40E0DF91CF911F910F91EF90DF90A3
:10422000CF900C944A1741E0F5CF42E0F3CF909144
:10423000950146E25AE1983008F4CACC4EE15AE1C1
:10424000C7CC9091950146E15AE1983008F4C0CC72
:104250004EE05AE1BDCC8F929F92AF92BF92CF9227
:10426000DF92EF92FF920F931F93CF93DF93CDB71F
:10427000DEB7C851D1400FB6F894DEBF0FBECDBF38
:10428000E0914B08F0E0EE0FFF1FEE5AF74F608110
:10429000718148E151E0CE0101960E940637CE01BE
:1042A00001966C0164E1E62E66E0F62E75E2972E2B
:1042B000E3E0AE2EB12CF6EC8F2E10E000E0F6011C
:1042C000E00FF11F808190914B08F701E00FF11F83
:1042D000992329F0F801E85EFE4FEE0DFF1D808363
:1042E00081113EC00E945236B5010E949C379091C8
:1042F0004B08F701E00FF11F992329F0F801E85E60
:10430000FE4FEE0DFF1D80830F5F1F4F0E30110516
:10431000B1F69EE0E90EF11CEEE0CE0ED11CFCE2FF
:10432000EF16F7E0FF0649F680914B0881113EC079
:104330008BEA95E00E94B91BC85EDE4F0FB6F89479
:10434000DEBF0FBECDBFDF91CF911F910F91FF90C8
:10435000EF90DF90CF90BF90AF909F908F90089597
:10436000813061F4F701E00FF11F992329F0F80182
:10437000E85EFE4FEE0DFF1D8082C6CF823039F41D
:104380000E945236B5010E949C37815EB0CF8F33B8
:1043900009F0BACFF701E00FF11F992329F0F801D6
:1043A000E85EFE4FEE0DFF1D9082AECF823020F210
:1043B000F12CE12C94E6A92EB12C26E6C22E34E194
:1043C000932E48E7842E8701025C194F87E0D82E90
:1043D00080914B08F80181111FC08381863C79F4DC
:1043E0000E945236B5010E949C370A970CF58091C5
:1043F0004B088830A8F4811119C0F8018382DA943F
:104400000F5F1F4FD110E4CFFEE0EF0EF11C86EBE3
:10441000E816F104C1F690CFE55EFE4F8081DECF55
:104420008AE7F801E55EFE4F8083E9CF88E7F9CFA0
:104430000E945236B5010E949C37059704F780917F
:104440004B088830E0F6F80181110CC093820E947D
:10445000523680FDD4CF80914B08F801811106C0FF
:10446000C382CDCFE55EFE4F9082F1CFE55EFE4F79
:10447000C082C5CF80934B080E942B210E94AE10B2
:1044800081E0089580E00E943A2210927E08109206
:104490007F081092500810924C0810924D0810920C
:1044A0004E0888EC8093510881E0809349088093FE
:1044B000460880934A0883E08093440882E0809312
:1044C0004508109247081092480810924F08109221
:1044D0006408109265088EE18093660810929D052D
:1044E00010929C0510929E0584E190E09093A005A7
:1044F00080939F051092A2051092A1051092A40529
:104500001092A3051092A6051092A5051092A80579
:104510001092A7051092AA051092A9051092AB055A
:104520001092AF051092AE051092B1051092B00531
:104530001092B3051092B2051092B5051092B40511
:104540001092B7051092B6051092B9051092B805F1
:104550001092AD051092AC051092BB051092BA05F1
:1045600088EC90E090939A05809399051092BC0591
:1045700080919805843008F484E08093980589E060
:1045800080939B058CE995E00C9400194EEA56E067
:1045900098E024E030E0FA01E20FF31F80818731D8
:1045A00011F08B3111F4825080832F5F3F4F2D30FB
:1045B000310589F79150425F5F4F9111EACF24E1B5
:1045C00036E043E154E4AFE4BAE5F90190E08081DC
:1045D000682F70E064347105D4F16B34710514F404
:1045E0008F5F80838081682F70E06F3471059CF14C
:1045F0006635710514F48F5F80838081682F70E0C9
:104600006A35710564F16136710514F48F5F80833A
:1046100080816EE9680F643010F48F5F8083808141
:1046200069E9680F633010F48F5F8083808165E9EA
:10463000680F623010F48F5F80839F5F31969D30EA
:1046400031F64150225F3F4F4111BFCF0895813471
:1046500048F25083C7CF8C3480F2A083CECF873509
:10466000B8F2B083D5CF80914B0881112AC08091D8
:104670009805843008F484E08093980589E080935D
:104680009B058CE995E00E94001910924F0810924A
:104690007E0810927F081092500810924C081092D9
:1046A0004D0810924E0888EC8093510881E0809369
:1046B00049088093460880934A080E94AE100C94E3
:1046C000C6220895AF92BF92CF92DF92EF92FF92EF
:1046D0000F931F93CF9300914408202F30E0FC01EB
:1046E000E20FF31FEF3FFE0761F4C0E08C2FCF9184
:1046F0001F910F91FF90EF90DF90CF90BF90AF9000
:104700000895E0904508AB014E0D511D4F3F5407F1
:1047100061F33D9754F7483051053CF74091470805
:1047200050914B08040F080F10E0E0914808EE0E7E
:10473000E60EF12CAEE0A09FF001A19FF00D112438
:10474000511119C0EC5EF94FEE0DFF1DC081CD3344
:1047500009F42CC1CE3309F42BC15B016C01C630C6
:1047600099F4513069F4240F311D273031050CF0D4
:10477000BDCFC5E0BBCFEE0DFF1DE45DF84FE6CF2A
:104780005630D9F4C7E0B2CFCB3441F588EB95E091
:104790000E94001985E080937E0880914B0881116A
:1047A0005CC08EE0809FF001819FF00D1124EC5ED3
:1047B000F94FEE0DFF1D87EC808392E99C0FE0918D
:1047C0004B08933090F580919E05981770F18F5F9C
:1047D00080939E0585E080937E0818C0C63529F435
:1047E00086EB95E00E940019D5CFC13609F0E2C0F2
:1047F00084EB95E00E940019CDCF82EB95E00E94FA
:10480000001985E080937E08E0914B08E11130C0EB
:104810002EE0209FC001219F900D11248C5E994FA6
:10482000E80EF91E87ECD7018C93E0934F08E9302E
:1048300008F062C0F0E0E15EFB4D0C94B037442418
:1048400052245E24682474249824A324AE24B9241A
:1048500080EB95E00E9400199DCF8EE0809FF001D3
:10486000819FF00D1124EE0DFF1DE45DF84FA3CFE5
:104870008EE0809FD001819FB00D1124AE0DBF1D31
:10488000A45DB84F87ECD0CFC131B1F581E0CF91B5
:104890001F910F91FF90EF90DF90CF90BF90AF905E
:1048A0000C943A22CD3131F410924B080E94AE1094
:1048B000C1E01CCFC23101F582E0E9CFCE3131F346
:1048C000CD3111F483E0E3CFC131B1F484E0DFCF27
:1048D000CE3111F485E0DBCFCD31C1F3C13161F3CD
:1048E000C23151F487E0D3CFCE31E1F3CD3121F3A2
:1048F000C13141F3C23171F38FEE8C0F8E3068F00D
:104900008FEB8C0F873348F0C63C38F4C730F1F595
:1049100080919E05882309F4E8CE80914408C80E52
:10492000C092440860914508A60EA0924508C0CFE9
:10493000CE3161F2CD31B1F2C13111F486E0A7CFB1
:10494000C231D1F6BFCFCD3131F4809144088230ED
:1049500008F288E09CCFC13179F6C4CFCE3109F49A
:10496000B1CFCD3159F3C13109F4B4CFC23121F601
:10497000ADCFCD3139F48CE995E00E9400190E9449
:10498000C622E7CFC13109F0B7CFD8CFC83029F45C
:1049900080919E05823008F6A8CEC93009F0A5CED8
:1049A00080919E05833008F0B8CF9FCEC2E09ECEA6
:1049B000C3E09CCEC63609F420CFCA3609F448CFEE
:1049C000CD3609F0FACE8EEA95E00E940019E2CECB
:1049D0000C940F37CF92DF92EF92FF920F931F93B9
:1049E000CF93DF93CDB7DEB7C851D1400FB6F8945F
:1049F000DEBF0FBECDBF88E9E82E85E0F82E01E5C9
:104A000010E0C8010E940F37F70181937F010F5F0B
:104A10001F4F06371105A9F7CE0101967C0106E765
:104A200010E06C01C8010E940F37F70181937F01EC
:104A30000F5F1F4F0E38F1E01F07A1F788E191E0EB
:104A4000F601A4E1B6E001900D920197E1F7C85E8E
:104A5000DE4F0FB6F894DEBF0FBECDBFDF91CF9112
:104A60001F910F91FF90EF90DF90CF900895FF92EC
:104A70000F931F93CF93DF93EC01F62E08811981DA
:104A8000C8010E940F37F81621F06F2DC8010E944F
:104A90001737CE01DF91CF911F910F91FF900895AD
:104AA0000F931F93CF93DF9300D0CDB7DEB702E013
:104AB00010E084E00E94E814882309F440C02D9897
:104AC00084E80E94E8148823C1F00E94CE1488EC88
:104AD00090E00E94D0142F981A8309836FEFCE01C3
:104AE00001960E94372584EF91E00E94D0142F9AFE
:104AF00084E80E94E8148111FBCF84E10E94E8144D
:104B00008823C1F00E94CE1488EC90E00E94D0145B
:104B10002E981A83098360E0CE0101960E94372502
:104B200084EF91E00E94D0142E9A84E10E94E81450
:104B30008111FBCF88EC90E00E94D014BACF0E9484
:104B4000CE140F900F90DF91CF911F910F91089588
:104B50001F920F920FB60F9211248F939F93809103
:104B6000E1009091E100937F9093E10083FF0FC0FB
:104B70001092E90091E09093EB001092EC0092E328
:104B80009093ED001092940198E09093F00082FFD2
:104B900022C093E09093E9009091F200992319F0DC
:104BA0009AE39093E80090918501992341F09091C8
:104BB0008501915090938501911101C05D9A90916A
:104BC0009301992341F09091930191509093930117
:104BD000911101C0289A84FF18C08091E2008E7E56
:104BE00081608093E2008091E1008F7E8093E100FC
:104BF000809186018E7E8061809386019F918F9146
:104C00000F900FBE0F901F90189580FFF7CF8091E7
:104C1000E2008E7E80618093E2008091E1008E7ED2
:104C20008093E100809186018E7E8160E5CF1F92A6
:104C30000F920FB60F921124CF92DF92EF92FF9254
:104C40000F931F932F933F934F935F936F937F9394
:104C50008F939F93AF93BF93EF93FF93CF93DF9384
:104C6000CDB7DEB76C97DEBFCDBF1092E900809163
:104C7000E80083FF25C068E0CE0145960E94E4135A
:104C800082EF8093E8008D8987FF39C09091E8001A
:104C900090FFFCCF982F907609F034C19E894F8900
:104CA000588D2F89F88C911131C0803861F5809131
:104CB00084018093F1001092F1008EEF8093E80060
:104CC0006C960FB6F894DEBF0FBECDBFDF91CF91CB
:104CD000FF91EF91BF91AF919F918F917F916F91D4
:104CE0005F914F913F912F911F910F91FF90EF9006
:104CF000DF90CF900F900FBE0F901F9018959EEFF2
:104D00009093E800C7CF1092F100D5CF913059F4BD
:104D10008111D3CF4130510581F6809184018D7F7F
:104D200080938401CACF933049F48111C6CF4130BA
:104D3000510519F6809184018260F2CF953041F4DB
:104D40008091E80080FFFCCF20682093E300B5CF7E
:104D5000963009F0A9C00B8D1C8D22E01092E9005D
:104D60001092820110928101F2122EC010928001E5
:104D700010927F010E94B3131F8299E09983FA82F7
:104D800091E09E8390EA98879AEF9987209181011C
:104D900030918201275F3F4F3C832B838D8310929C
:104DA000E90010928201109281011093800100931A
:104DB0007F0149E050E0BE016F5F7F4F80E00E94BD
:104DC0008D130E94B31379CF1093800100937F015C
:104DD0000E94CA12DC0112960D911C910115110559
:104DE00009F451C1D801ED91FC910480F581E02DC9
:104DF000BE016B5E7F4FC8010995009709F03EC167
:104E0000F80100851185EACFF3E0FF120EC08F890B
:104E1000882309F440C0823061F440E860E18DE904
:104E200099E10E949328811148CF81E28093EB00A1
:104E300047CF813029F440E86BE081E999E1F1CF77
:104E4000833099F70E94CA12DC011296ED90FC9013
:104E50008E010F5F1F4F6801E114F10479F0D70153
:104E6000ED91FC910680F781E02DB801C70109950D
:104E7000080F111DF701E084F184EECFD8011C92D8
:104E8000F60101900020E9F73197BF016C197D0907
:104E900040E0C601C6CF6BE779E1FB01449150E0E9
:104EA00080E80E948D1309CF973009F4BECF983067
:104EB00021F481E08093F10000CF993009F0FDCE1C
:104EC000837009F0B2CFE6E5F1E081E031E096E3EE
:104ED0002191222371F08093E9003093EB00DF01F0
:104EE00011972C912093EC009093ED008F5F873009
:104EF00079F78EE78093EA001092EA008F89809319
:104F00009401DBCE8B8D9C8D1092E9001092820172
:104F1000109281019093800180937F01898D81118E
:104F200092C08E899D89913A49F4813209F07DCFF2
:104F300047E050E065E071E080E0B3CF913209F0E6
:104F400074CF833269F48F89988DB0E0A0E08093AC
:104F5000010190930201A0930301B0930401ADCE2F
:104F6000803269F48091E80082FFFCCF67E085E041
:104F700091E00E94E4138BEF8093E8009ECE823292
:104F800009F09BCE8F8980930C01EEEFFFE78591AE
:104F900094918B3F9C4D51F1E0E0F8E08091050148
:104FA00090910601A0910701B0910801803B9440C7
:104FB000A105B105F1F480910C0180FD1AC0EE3F0E
:104FC0008AE0F80789F587E797E7918380838091E6
:104FD00060008093830188E19BE00FB6F894A89568
:104FE000809360000FBE9093600067CEEEEFFAE012
:104FF000D5CF808191818737974709F05ECEA895FC
:10500000809160008861809360008091830180932B
:105010006000EE3F2AE0F20789F08091FE0A90914D
:10502000FF0A9183808349CE8081918187379807D9
:1050300051F29093FF0A8093FE0AC5CF1092FF0AA7
:105040001092FE0A3ACE0E94CA12DC0112960D910D
:105050001C910115110509F4E8CED801ED91FC91E0
:105060000190F081E02DBE016B5E7F4FC801099574
:10507000811123CEF80100851185EBCF1816190692
:105080000CF41BCED2CEF1E0FF12BECE6FE779E179
:1050900004CF1F920F920FB60F9211242F933F93BC
:1050A0008F939F93AF93BF938091770190917801F5
:1050B000A0917901B0917A0130916E0123E0230F24
:1050C0002D3758F50196A11DB11D20936E018093D7
:1050D000770190937801A0937901B0937A01809140
:1050E0006F0190917001A0917101B09172010196D0
:1050F000A11DB11D80936F0190937001A093710168
:10510000B0937201BF91AF919F918F913F912F9179
:105110000F900FBE0F901F90189526E8230F029650
:10512000A11DB11DD2CFEF92FF920F931F93CF938A
:10513000DF93F82E192FE62E042F81E0860F880FBB
:105140000E945F1383E00E945F13CF2DD12FEC0EDE
:10515000FD2EF11CCE15DF05B9F007FF13C0FE01CF
:1051600084910E945F13182F80E00E945F138123B7
:1051700021968111EFCFDF91CF911F910F91FF9079
:10518000EF9008958881EDCF81E0F5CFEDEBF5E06C
:105190001382128288EE93E0A0E0B0E084839583CE
:1051A000A683B78380E691E0918380838FEF9FEFA2
:1051B00095878487E9E7F8E01182108213821282D2
:1051C00081E0848392E1E5E1F1E0A7E6B8E00190B7
:1051D0000D929A95E1F792E1E7E2F1E0A2E5B8E0FD
:1051E00001900D929A95E1F7E2E1F6E01082818359
:1051F000E0E1F6E0108284E08183EDE0F6E01082E9
:1052000085E081830895CF93DF9300D0CDB7DEB7DB
:10521000789484B5826084BD84B5816084BD85B591
:10522000826085BD85B5816085BD80916E0081609D
:1052300080936E0010928100809181008260809343
:105240008100809181008160809381008091800045
:1052500081608093800080919100826080939100B2
:105260008091910081608093910080919000816095
:10527000809390008091C10084608093C1008091F0
:10528000C10082608093C1008091C10081608093E1
:10529000C1008091C30081608093C3008091C000F1
:1052A00082608093C0008091C20081608093C200C0
:1052B00080917A00846080937A0080917A00826085
:1052C00080937A0080917A00816080937A00809147
:1052D0007A00806880937A00109294011092840181
:1052E000109286018091D70081608093D70080EA78
:1052F0008093D80089B5806189BD89B5826089BDF8
:1053000009B400FEFDCF61E070E080E090E00E9413
:1053100016148091D8008F7C80618093D800809192
:10532000E000807F8093E0008091E1008E7E80939A
:10533000E1008DE08093E200559A209A81EC809301
:105340007C0085B1806F85B984B1877E84B984B1D2
:10535000876E84B95E9A5F988AB1806D8AB9769AB1
:105360006E9881B3806F81BB899880B38D7080BB4C
:1053700080E58CBD81E08DBD85E090E00E94D01479
:105380005F9A85E090E00E94D0145E985C98E6EB0E
:10539000FDE083EC9DE024912EBD00000DB407FEDE
:1053A000FDCF31968E179F07B1F75C9A81E8809305
:1053B00064008091650081608093650080E00E94B8
:1053C0005A1180E80E94E8148823A9F05C9885EAC5
:1053D0008EBD00000DB407FEFDCF5C9A2E982F986D
:1053E0002D988091640080628093640081E083BF87
:1053F000889513BEFCCF0E94502582E090E00E9469
:10540000E824882309F48EC03E9A3F9A81E090E018
:105410000E94E824182F147081FF10C011112E98DB
:10542000F1EFCF2EDD24DA9480E40E94E814882383
:1054300009F47BC02E9A2F9A0E94CE140E94CD1898
:1054400082E480930001809164008E7F80936400E9
:1054500080917A00806480937A0080917A0086FD42
:10546000FCCF00917800109179000E94F113AB01FC
:10547000BC01C801B0E0A0E0DC01992788278C01BD
:105480009D01040F151F261F371FC901B801209168
:105490006400216020936400611571058105910508
:1054A00011F00E94FD360E9450250E94CD188FE613
:1054B000809375011092760180E590E00E94E824C7
:1054C0008F3649F48EE891E00E94E8248F3619F473
:1054D00081E0809376018FE0809395010E944222C3
:1054E00063E0C62ED12C74E0672E712C47E0842E29
:1054F00056E0952E8FB7F89440917701509178013E
:105500006091790170917A018FBF10917D01112313
:10551000E1F110927D0180E090E0892B59F30E9427
:105520000000E4CF3E983F9871CF112331F004E0A2
:10553000C016D10411F42E9A2F9881E00E945A11BE
:10554000EE24E39400E128E543EC5DE0B60184E15C
:1055500090E00E94261580E00E945A118FE090E0B2
:105560000E94D0142FEFC21AD20A39E1C316D10417
:1055700009F05ACF112311F02F9A2D9880E991E06C
:105580000E94D0140E94CE1459CF80917E01242F06
:10559000281B822F90910001291748F48F5F8917EB
:1055A00008F0B9CF81E083BF889513BEB4CF81E006
:1055B00080937D0140937E0180917B0190917C01DD
:1055C000019690937C0180937B018091740180937C
:1055D00073010E94D51480937401E8E9F1E0111180
:1055E0001FEF002411931193119311930394D1F79A
:1055F00080919701823009F49CC288F4882359F184
:10560000813009F441C180919501815011F40C94CD
:10561000E9358093950180E00E945A117CCF833058
:1056200011F40C94AA33843071F7EE24E39408E06B
:105630002EE44BEE58E169E170E087E190E00E94D2
:10564000261580919601882311F40C94E63581503B
:105650008093960101C20E945236E7E4F0E1E491A2
:1056600090917B008E2F880F880F80729F7D892BF1
:1056700080937B00E770E064E0937C0080917A0087
:10568000806480937A0080917A0086FDFCCF8091BF
:1056900078008091790010917601EE24E39408E17E
:1056A00024E34BEA5FE070E060E089E490E00E9470
:1056B000261580919501883008F06EC007E127E13A
:1056C00046E65FE062E170E084E190E00E9426152A
:1056D0000CE02CE04EE45FE06EE170E081E490E0ED
:1056E0000E942615EE24E39408E02CE345EB5EE0EF
:1056F00069E270E084E190E00E942615112309F42C
:105700005CC004E028E14DE95EE064E370E082E61D
:1057100090E00E94261528E140E651E16CE370E03C
:1057200087E690E00E94261528E044E36CE580912E
:1057300012060E94D618EE24E39408E028E045E91A
:105740005EE068E370E090E080E00E94261504E0EF
:1057500022E243E75EE06CE370E08FE090E00E94BD
:105760002615809176018093130682E196E00E94CF
:10577000431B0E94F7188823A1F180911206882309
:1057800059F1813071F50E9442228091760188237F
:1057900029F10E94EA2422C0EE24E39407E127E1E4
:1057A00049E05FE062E170E084E190E00E9426154C
:1057B0000CE02CE041EF5EE08FCFEE24E39404E0B8
:1057C00028E14DE95EE06CE370E082E690E00E9443
:1057D000261528E04CE3AACF0E94422282E00E94D4
:1057E00069110E9452366AE070E00E949C37892B52
:1057F00049F50E94523669E170E00E949C3780347E
:10580000910500F5AC014770552721E030E001C05B
:10581000220F4A95EAF72095FC0193E0F595E7956C
:105820009A95E1F7F695FE2FEE27F795E795E75263
:10583000FE4F9DE3915031F08191DF01119782235A
:105840008C93F8CF02E010E0B2E0AB2EB12C80E1F7
:10585000E82E87E2F82E0E945236B0927A08A09283
:10586000790810937C0800937B08B7010E949C374D
:10587000BC01990F880B990B0E9472180A5F1F4F89
:105880000833110541F7BFCEEE24E39404E222E28F
:105890004AE052E164E170E085E090E00E94261564
:1058A0004091990550919A05403137E2530710F025
:1058B0004FE057E26CE185E20E945E1B4091AC052F
:1058C0005091AD0562E285E20E945E1B4091BA05EF
:1058D0005091BB0568E285E20E945E1B4091AE05D7
:1058E0005091AF058091B0059091B105480F591FB7
:1058F0008091B2059091B305480F591F8091B4056E
:105900009091B505480F591F8091B6059091B70544
:10591000480F591F8091B8059091B905480F591F3C
:105920006EE285E20E945E1B40919F055091A005AA
:105930008091A1059091A205480F591F8091A30560
:105940009091A405480F591F8091A5059091A60537
:10595000480F591F8091A7059091A805480F591F1E
:105960008091A9059091AA05480F591F64E385E22B
:105970000E945E1BEE24E39404E022E248EE51E133
:1059800064E070E08AE490E00E94261522E246EC92
:1059900051E16CE170E082E590E00E94261522E280
:1059A00044EA51E162E270E082E590E00E9426154F
:1059B00022E242E851E168E270E082E590E00E9474
:1059C000261522E240E651E16EE270E082E590E0C9
:1059D0000E94261522E24EE351E164E370E082E585
:1059E00090E00E94261526E04CE16CE480911006C0
:1059F0000E94D6180CE320E14EEB50E162E070E02B
:105A00008EE690E00E94261502E02BE643E550E189
:105A10006BE370E085E090E00E94261580E196E05F
:105A20000E94431B0E94F718882379F0809110068A
:105A3000843011F40C94E635833009F464C082306C
:105A400009F1813061F0882321F00E94EE1888234B
:105A500019F082E00E9469110E941216D4CD809143
:105A60004B0881115AC080919B05109264088430C4
:105A700008F05BC0909265088EE1809366080E94F2
:105A80003323E7CF80914B08811147C081E0809399
:105A9000760180E590E09A83898360917501CE015B
:105AA00001960E943725A8E9EA2EA5E0FA2E01E525
:105AB00010E01A830983F70161917F01CE010196FD
:105AC0000E9437250F5F1F4F0637110591F7F4E14C
:105AD000EF2EF6E0FF2E1A830983F70161917F0113
