:100000000C9489100C94B1100C94B1100C94B11094
:100010000C94B1100C94B1100C94B1100C94B1105C
:100020000C94B1100C94B1100C9446250C94B52589
:100030000C94B1100C94B1100C94B1100C94B1103C
:100040000C94B1100C94B1100C94B1100C94B1102C
:100050000C94B1100C94B1100C94B1100C94E727CF
:100060000C94B1100C94B1100C94B1100C94B1100C
:100070000C94B1100C94B1100C94B1100C94B110FC
:100080000C94B1100C94B1100C94B1100C94B110EC
:100090000C94B1100C94B1100C94B1100C94B110DC
:1000A0000C94B1100C94B1100C94B1100705050F0D
:1000B0000F0D0D0F010905030F0D0D0D0B0B0D0D90
:1000C0000302020F09090D0F0D0D0B0B000A0F089B
:1000D0000F09090F3737373737373737373737375C
:1000E000373737373737370101370137371D37375C
:1000F00037373737010101370101370137373737D4
:1001000037010101010101010101373737370101D1
:10011000010101010101010137373701010101012D
:100120000101010101010137370101010101010153
:1001300001010101013737373701010101010101D7
:1001400001373737370101010101010101010101C7
:1001500001373701010101010101010101010137ED
:1001600037010101010101010101010101373701DD
:100170000101010101010101010101373737370197
:100180000101010101010137373737010101010187
:1001900001010101010101373701010101010101E3
:1001A000010101010137373701010101010101019D
:1001B0000101373737370101010101010101013721
:1001C0003737373701370101370101013737373703
:1001D0003737113737013701013737373737373777
:1001E000373737373737373737373737000000007B
:1001F0000000000000001D000000000000010101DF
:1002000028000000010100000000010101010100BF
:1002100000000101020000010101010101010000D3
:100220000101010000010101010170010100010152
:100230000100000101010101010101000101300083
:1002400000010101010101010100010101000001A2
:100250000101010101010000010101001201010180
:100260000101010000010101011E00010101012F36
:100270001400000101010100000101012D2C00000A
:10028000010101010100000101010000002901013B
:100290000101010000010100000002010101010152
:1002A0000200000100000001010101010101000044
:1002B000001400020101010101010101010000001F
:1002C0000000010101010200010101000000000124
:1002D0000101010101000101010000000101010112
:1002E0000101010101010100000101010101010100
:1002F00001010101000000110000000000000000E9
:1003000000000000000000000000000000001D00D0
:100310000000314040404040012B2D0001140000FE
:1003200040404040404001012E000707000040408F
:1003300040404040010101000101000040404040B8
:10034000404001010109010101004040404040409E
:10035000010101090101010040404040404001010C
:10036000010001010100001D0001010101013F0028
:10037000000101000001010101012F01010005013F
:100380000100000206012B2D2C01000000010100DC
:100390000000000000000000000201010100000058
:1003A0000001010000000201010101000000010143
:1003B000010101010101010114000001010101011C
:1003C0002A010101010114000001010101010101E3
:1003D00001010101140000010101010101010101FC
:1003E00001010100000101010101010101010101FF
:1003F00000000000010100020101010101010000F3
:1004000000000000000002000101010000000000E7
:10041000000000000000000011000000001D0000AE
:1004200000000000000000000000000101010114B4
:10043000140000000101000000020001010101019F
:10044000002A010101000000000101010101010277
:100450000101010000000000010101010101010191
:100460000100000000000001010101010101010083
:100470000001010100000101010101010100000171
:10048000010101020000010101010100120101014D
:100490000100020001010101011E00010101010131
:1004A0000002000101010100000101010101000041
:1004B000000000141400000201010101010101000B
:1004C000000202000000020201010101010101001D
:1004D0000000000000000101010101010101000014
:1004E00000000101010101010101010101000014ED
:1004F0000101010101010101010101000001016F80
:100500000100000101010101140000290101011491
:1005100000010101010114000000010101140002A9
:1005200001010101000000000000000000000000C7
:1005300011000000001D000000000000000000008D
:1005400000000001010101010000000002000000A4
:1005500000010101010101010000002B0100000167
:10056000010101010101010000010100000101017F
:100570000001010101010001010000010101000071
:100580000101010100010100000101010100000160
:10059000010200010100000101010100001402003C
:1005A0000101010012010101140000000005010118
:1005B000011E000101010000000000000101010016
:1005C0000001010000000101010101010100000121
:1005D0000000010101010101010101000000000111
:1005E00001010101010101010100000014010101EB
:1005F00001010101010101000002010101010101EC
:100600000101010101000001010101010101012FAE
:10061000010101000001010101010101022D013070
:1006200001000001010101010102000001010100BE
:1006300000010101000000000000010102000011A2
:10064000000000000000000000000000001D00008D
:100650000000000000000000000000010101000097
:10066000020000010101000000010108010000007A
:100670000101010101000001080101140014010140
:10068000010101000000010101142B010101010120
:1006900001000000010101012E010101010108001A
:1006A0000001010101010101010101080100000136
:1006B000010101010101010100020100120101011A
:1006C0000101010101010000011E00000000010103
:1006D000010101010100000000000101010101010F
:1006E00001010101000000010101010101010101FD
:1006F00001010100000501010001010101010101E9
:1007000001000001010100000101010101010100DE
:1007100000000707020001010101010101000001C1
:1007200001010102000101010101010000010101BB
:10073000011400010101016E010000010101011419
:100740000000010101010100000101010100002B75
:100750000101010100000011000000000000000084
:1007600000000000001D000000000000000000006C
:100770000000000101012D2C2B00000014141400B6
:100780000001010101012E01010101141400000109
:100790000101010101010101012F1400000101010A
:1007A000010101010101012C1400000001010101FE
:1007B0000101010101011400000501010101000115
:1007C000010101010100000001010101000101011D
:1007D000010101000001010101010000010101010D
:1007E000011E0001010101010200000101010200DE
:1007F00000020101010101000000000000000001F1
:1008000001010101010100021402000000010101C7
:10081000140101010101010102000001012C2D015F
:1008200001010101010101000001010101010101BA
:1008300001010101010000010101010101010101AA
:10084000010101000001010101010101010101019A
:1008500001000001010102010101012F010101005C
:1008600000010102000000012B2C01011400001105
:100870000000000000000000000000000000000078
:100880001D00000000000000000000000201010146
:10089000010101010000000000001401010101013B
:1008A000010101000000000014010101010101012A
:1008B000010100000000010101010101010101012C
:1008C00002000000100101100001060101010100F9
:1008D00000140101010114000101010101000001E6
:1008E00001010101010000100101100012010101CC
:1008F00001011400000101010100000106010101D4
:1009000002000001010114000000010101010000CA
:1009100014010101000000000001010000140101A8
:1009200001010000000000000000010101010101BF
:10093000140000001414140101010101010101005F
:10094000000E4040010101010101010101000040D0
:10095000403D010101010101010101000040403D54
:1009600001010101010101010000004040400101BD
:10097000010114010101000000001414143F012CB6
:100980002D01010200000000000000000000000036
:100990000000000000000000000000000000000057
:1009A000000000020214C7C7C7C7C7C7C7C7C70030
:1009B0000D3E1301C7C7C7C7C7C7C7C7C700404059
:1009C0000101C7C7C7C7C7C7C7C7C70040400101A4
:1009D000C7C7C7C7C7C7C7C7C70000010101C7C787
:1009E000C7C7C7C7C7C7C70000140101C7C7C7C764
:1009F000C7C7C7C7C700000F0101C7C7C7C7C7C759
:100A0000C7C7C700000F0101C7C7C7C7C7C7C7C748
:100A1000C700000F0101C7C7C7C7C7C7C7C7C700FF
:100A2000000101011010101010100101100000024F
:100A30000101010101010101010101000A0B010194
:100A4000010101010101010101000C40010101014D
:100A50000101010101010100404001010101010109
:100A60000101010101000001010101010101010178
:100A70000101010000220101010101010101010147
:100A80000100000201010101010101010101010058
:100A90000000021401010101010101010100000037
:100AA000000011000000000000000000E1AFA1E123
:100AB00000EF4D89E900EF2123EF00EF2565E70006
:100AC000EFA9A9EF00EF05050B00EF8585EF002FDB
:100AD000686808000000000100000100010000013A
:100AE00000010101010001000001000100000100FE
:100AF00001010101000001000000000100000000F0
:100B00000000EF8284EF00EF2929EF00E12F61E17F
:100B100000E0AF25250F00E18F81E100E0A020205B
:100B20000020E02020000000000000000001000084
:100B300001000101010100010000010001010101AA
:100B4000000000010000000101010100000100009F
:100B50000000000000000000E10F81E100E92F2902
:100B6000E900EFA1A34F00EF4DA9290060016F013B
:100B700001000F09090F0000000000000000000044
:100B8000000000010101010001010101000100005C
:100B90000100010000010001000100000000000050
:100BA0000000000000000000000000000000E1AFB5
:100BB000A14100EF0404EF002FED292900E040805F
:100BC000E0006060A0A00000000000000000000045
:100BD0000000000000000000000100000100010111
:100BE00001010001010101000100000100010101FA
:100BF00001000000000000000000000000000000F4
:100C0000000000002FE2242F002FE9292F00E1AF80
:100C1000A14100E0A0202000E02020C00000E080F2
:100C200080E000E0A020200020E020200000000064
:100C300001000000010101010001000001000101AB
:100C4000010100010101000000000100000001019C
:100C5000010100000100000000006B6BADAD002F32
:100C6000ED292900EF2D29E900EFA9A94600EBABFA
:100C70002D2D00000000000000000000000000001A
:100C8000000000000001010101000001000000015E
:100C9000010101000100000100010101010000004B
:100CA0000000000000000000000000000000000044
:100CB000EF29292D00EF8989EF00EF2929EF002F77
:100CC000E9292600E020202000E0A02020000000EC
:100CD0000000000000000000000000010101010010
:100CE00001000001000101010100010101010001F9
:100CF00001010100010101010000000000000000ED
:100D0000000000000000EFA2A4EF00EF4D89E90011
:100D1000EF8D89E9002FE9292600E08080E000209E
:100D2000E0202000E04080E000E02020A0002060E3
:100D3000600100000100010000010000010000004E
:100D4000000100000001000001000101010100019B
:100D50000000010001010101000001006F68A8A866
:100D6000002FED292900E1AFA1E100E1A0AB4B0D7F
:100D70002DE0202000000000000000000000000026
:100D8000000000000000000101010100000100005E
:100D9000000100000100010000010000010000004E
:100DA0000000000000000000000000000000000043
:100DB00000001F0E0400D5F08D14A1C881CFD9F119
:100DC000AF2000F0F89C8E8783878E9CF8F000009F
:100DD000FEFF0303030303070EFCF80000FEFF03FE
:100DE00003030303070EFCF80000FFFF00000000F0
:100DF000000000FFFF0000FEFF8383838383C7EEB4
:100E00007C380000F8FC0E07030303070EFCF80013
:100E1000003F7FE0C08080C0E07F3FFFFF01010115
:100E200001010101FFFF0000FFFF0C0C0C0C1C3E38
:100E300077E3C100007FFFC0C0C0C0C0E0703F1FAB
:100E400000001F3F70E0C0C0C0E0703F1F00007F87
:100E5000FFC1C1C1C1C1E3773E1C00001F3F70E06C
:100E6000C0C0C0E0703F1F000000000001FFFF0194
:100E7000000000070808070000090F080008000923
:100E80000F08000704040006030600010704000120
:100E9000060100070107000705070007010100011F
:100EA000070100070207FF81BDA5B5B581FF0B0B48
:100EB0000D0D00010F0101000F05050F000F050DBD
:100EC0000700010F0101F00834020232020204841B
:100ED00008F0010204040404040405040201E01003
:100EE000680404640404088810E001020404040493
:100EF00004040504020101018181414121211111F4
:100F000009090505030101018141211109050301B9
:100F100001010101010101010305091121418101C3
:100F200001010303050509091111212141418181B5
:100F3000010178FECE0606CEFE1C0000F8FCFCFC8B
:100F40003C7C7CF800000000000000010100FF3242
:100F50003030101B67017000F9306760000000003E
:100F600000000000207F0060701C1A0B0303020ABF
:100F70001A7C604000000078FECE0606CEFE1C0003
:100F800000FCFEFE7E1EBE3EFC00000000000000D5
:100F9000010100FF323010180DB380B8007C1873C7
:100FA000600000000000000000207F0060781E0D3F
:100FB00005010101051D7E70400000000080808059
:100FC00080808000000000000000000000000000A1
:100FD00000000000000000000000000000C07038A9
:100FE0001C1E0E0F0F0F0F1F1F3F7EFEFCF8F0C0E0
:100FF0003F4040404040403F0038444444440004A7
:10100000047C0404007C545444440004047C040420
:10101000000000000000000000000000000000C10F
:10102000FFFF7F1F00000000000000000000000024
:10103000000000000000FF020408102040FF0088AC
:1010400088F8888800F888A8A8C800F8202020F828
:10105000000A0BFB09080000070605040100080A46
:101060000B0C0D090303030303030303030303032F
:101070000303030303030303030303030303030340
:101080000303030303030303030303030303030330
:101090000303030303030303030303030303030320
:1010A0000303030303030303030303030303030310
:1010B0000303030303030303030303030303030300
:1010C00003030303030303030303030303030300F3
:1010D000FCFECEE6F2F2F2E2C202060EFEFC0000D8
:1010E000070F0F0F0F0F0F0B0908FC9E9FFF00004B
:1010F00000000000000000000000FF1919FF0000C0
:1011000000000000003C3C180000FFC0C0FF0000D1
:101110000000000000CFCF860000FF0303FF0000A7
:101120000000000000F3F3610000FF9898FF00004A
:1011300000000000003C3C180000FFF9F9FF00002F
:101140000007070707030303000000010100000F69
:1011500001030F000800000F01030F000F0B0B0924
:10116000000F02040F000F08080F0000000000002D
:10117000000F080808000F09090F000F05050F00F0
:101180000F09090600000000000000000000000038
:101190000000000B0B0D0D000F05050F00070808E0
:1011A00007000F0D0909000000000000000000000A
:1011B00000000000000F02040F000F0B0B09000FCE
:1011C000080C0F0000000F090906000F05050F00AD
:1011D000070C04070000000F0B0B0E000F05050F96
:1011E000000F090909000F020509000000000000B6
:1011F0000000000000000000000F09090F000F05AB
:10120000050700010F010100090F0900000F09097E
:101210000F000F02040F000B0B0D0D0B0B0D0D003B
:10122000010F0101000F05050F00010F0101000B67
:101230000B0D0D000A0000000000000000CF41432C
:10124000CF00CF4949CF004FC2444F004FCD49494D
:1012500000C74C44C700C08000C000C0C04040F37D
:1012600081C1F100F39292F300F09390F000F283C9
:101270008282000302020300030001030002020352
:10128000033C242424003C14142C003C24243C0063
:101290003C14141C002C2C3434000000000000000E
:1012A0000000000B0B0D0D000F0D0909000F0D09BB
:1012B00009000F090906000B0B0D0D0000000000CE
:1012C000000000000090D0B090000A0E0A3030FC00
:1012D000FC30300000FFFFFFFFFFFFFFFFFF0000BB
:1012E0001C3C783C1C00002C6E343400007C5454B0
:1012F00054440000FFFF000000003C20203C002C74
:101300002C3434003C34342400000000FFFF000083
:10131000003C00040C1C0C04000000000000000055
:101320003C000000FFFF0000003C00000000000047
:1013300000002030383020003C000000FFFF01BCDE
:10134000159C01BC21A001BC15BC01BC0DB03D80A9
:1013500005BC0581FFFF803D941D803DA021803D9F
:10136000943D803D8C31BC01843D8401FFFF80258C
:10137000BC258005BC05803DB425803D8811883D95
:10138000802DB401FFFF01A43DA401843D8401BC74
:1013900035A401BC099009BC01AC3580FFFF01AC4C
:1013A00035801DA011BC01BC25A43D803D942D803D
:1013B0003DA41980FFFF802DB4019C21903D803D0C
:1013C000A425BC01BC15AC01BC259801FFFF802DF4
:1013D000B401BC11BC01BC25803D943D803D942DE1
:1013E000802DB401FFFF01AC35803D903D803DA4D0
:1013F00001BC15BC01BC15AC01AC3580FFFF819967
:101400008199A58181BDC3BDADADB9C3BD8181A5A4
:1014100099819981FFFF8181998199A581BDC3BD82
:10142000ADADB9C3BD81A59981998181FF002A54D1
:101430002A542A540000542A542A542A00000383B0
:101440004320212040810000814020212020418034
:101450000000070C12111110083C41413C0408091E
:10146000090A04030000000700000700000700004D
:10147000000000000000000000C070381C1E0E0FAD
:101480000F0F0F1F1F3F7EFEFCF8F0C0BCA4A498F6
:1014900000800000800000000000C1FFFF7F1F07E8
:1014A0000202070003060203000004060303010012
:1014B00000000000000101008041E1E0E0A1418066
:1014C0000303030300000000000000C021124C00D1
:1014D000000C9221C000000000000000000000018C
:1014E00002040404040504020100000000000000DE
:1014F0000001010000010100030303834021F1000A
:10150000000000000000009070E0D0A82412090440
:1015100002010000000000000004020101000001BF
:1015200000000000000000000000000000010100B9
:10153000030303834021A16020018100000000001B
:1015400000E090503020DFA4223128241209070047
:101550000000000000000000060504030000000079
:10156000000000000000000003030303000101006D
:1015700000010180C0E161000000000000C0300CEB
:1015800002828448142CC201010000000000000007
:10159000000704050504020201010000000000002C
:1015A00000000000010000C12020590404992020FF
:1015B000C100030303000000000000182543464853
:1015C000482601010000000000000000070000079D
:1015D00000000700000700000700000700000000EF
:1015E000010000C12090C96868C99023C3030001AD
:1015F0000000000000000003040933463C08090411
:1016000003000000000000000700000700000700C2
:1016100000070000070000070000002071F818090B
:10162000102041804343231009D87839100000006E
:101630000000010204086B14080804020100000005
:10164000000000000700000700000700000700007E
:1016500007000007000000F01150902140830303B1
:10166000804120104928887900000000010204040C
:1016700008083D413C080804020100000000000089
:101680000700000700000700000700000700000037
:10169000000000000100030303E031181839F0E0F6
:1016A0000100000100000000000000000001033EF6
:1016B000423F030100000000000000000700000797
:1016C0000000070000070000000000000000E0101C
:1016D0000804020282420101814121A1A1C18102CB
:1016E000020206448404D2711F0F08F40C0447E67A
:1016F000E2224103061FF8000020301C10C8080732
:10170000827D0000000F102040909180808080C07A
:101710004043FC00807A20609E88040300000000A3
:10172000000000000000081526242828282B292462
:101730002232313C3E3F3F1E0C00C0E0F0F8FCFE80
:10174000FEFEFEFFFFFFFFFFFFFFFFFFFEFEFEFEB0
:10175000FCFCFCFEFFFF3F3F3FFFFFFFFFFFFFFFE3
:10176000FFFFFFFFFFFFFFFFFFFFFFFFFFFFFFFF89
:10177000FFFB0000001E3F7FFFFFFFFFFFFFFFFF9B
:10178000FFFFFFFFFFFFFFFFFFFFBF9F0F070000EF
:101790000000000000000103133B7FFFFFFFFFFF7D
:1017A000FFFFFFFFFFFFFFFFFFFF7E3C180001016F
:1017B0000101CB4B4DCD00CF4D49C9004FC8484822
:1017C000004FC8484800C04F45C50FC08F08C80823
:1017D000000F0808080000000000000000000000E2
:1017E00000000000000000000000000000000000F9
:1017F00000000000B3B1D1D100F31232F300F05376
:1018000050F000F283828200F38282830003B0B141
:10181000D3D000F0D0909000F0D0909000F0909055
:10182000600000F050507000F05050F000F09090C8
:101830009000F02050903C2C2C3800243C242400B4
:101840003C24243400002C2C3434003C3424240068
:101850003C342424003C24241800003C14141C00B4
:101860003C14143C003C242424003C0814240000B4
:101870000000000000000000CBCBCD8D00CF444421
:10188000CF00CF4D494900CF8D4949000F050507CD
:101890000000000000000000000000000000000048
:1018A0000000000000000000000000000000000038
:1018B000000000000000000000000302020300031B
:1018C0000101030003020202000300010200000004
:1018D0000000000000000000000000000000000008
:1018E00000000000000000000000000000000000F8
:1018F000000000000000000000000000FFFFC3C364
:10190000C3C3F3F30000FFFF33333333FFFF0000A3
:10191000FFFF03030F0FFFFF0000FFFFCFCFCFCF6D
:10192000C3C30000FFFFC3C3C3C3FFFF00003F3FAB
:10193000C0C0C0C03F3F0000FFFFCFCFCFCFC3C369
:101940000000FFFF3333F3F33F3F080B00020202B6
:10195000000009040000010202000005240010013B
:1019600005240101010424020605240600010705DF
:10197000810310004009040100020A00000007056D
:10198000020240000007058302400000040309042E
:1019900012010002EF0201404123368000010102E2
:1019A000030141726475696E6F204C4C43004172B3
:1019B0006475696E6F204C656F6E6172646F003C78
:1019C00076C3B1C10000003868D0D080C060380054
:1019D0000000C1B1C3763C1C0603010B0B161C00B2
:1019E00040AE566A0405070000EE7E7E000000004F
:1019F000402E56EA04050700006E7EFE0000000738
:101A000005046A56AE40000000007E7EEE0000072E
:101A10000504EA562E4000000000FE7E6E00000025
:101A2000104C3B2E741C00001C742E3B4C1000000C
:101A300070686878787000006050507070600000C6
:101A40000C1C301C0C0000000818301808000000A6
:101A5000000030000000000000000E7E0E000000BC
:101A60000000003C00000000000000380000000002
:101A7000000000200000000006163C3C1606000096
:101A80000414383C12020000000830380400000042
:101A90000000101800000000000010080000000402
:101AA0000A0A5428140E000000005028140E0000EA
:101AB00000004028140E000000084028140C00000C
:101AC000000840201008000000084020120000001C
:101AD0000408402002000000000800002000000070
:101AE00008000000200000000020000400000000AA
:101AF0000440000010000000000C526D2D120C007C
:101B0000000C526D15120C00000C526911120C00E1
:101B1000000C526101020C00000C52610100000037
:101B2000000C506000000000000850600000000041
:101B300000005060000000000000203000000000A5
:101B4000000000040C00000000181000000000005D
:101B5000244E3B111B0E000020443806090D0600E0
:101B600020443806090B0600204038040204000017
:101B70002044380402040000204038040000000023
:101B8000204030040806000020402002040200002B
:101B9000000008101800000000000C1400000000F5
:101BA00000302010000000FF04C42225C40404C239
:101BB0002524C404022594CC24222524242422A5EF
:101BC000E464242225CC94240205C42424C2050400
:101BD000C42422C50404FFFFE0810181010000014B
:101BE0008101010000C9247F801113171D19119173
:101BF000D1713111807F24C90000010181010000F1
:101C00000181010180C0FFFF29A9952B29292955B0
:101C10002B292929552B292929552B2929292929D6
:101C200029292B552929292B552929292B5529299A
:101C3000292B55292929FFFE85080801FE3C0000B3
:101C4000803C222222BC0000003CA222223C000058
:101C5000003CB2263E3C0080003C2226AE3C000008
:101C60003CA222223C00FFFF10212100FF01F109CC
:101C7000682909F101F0F90DADAD2C2D2D2D2D2D7B
:101C80002D2D2C2D2D2D2D2C2D2D8DB950616151EB
:101C900089083D4DC9D16F3F51A2A2907F207F801E
:101CA00099A2807F20CF1F40885A915592428C4440
:101CB000984080306848848A4A51A122D2A858D4DA
:101CC0005452956922BA5F80C0A0E0C0B0C0A08025
:101CD000C0A0E0C0B8D8BCB4C0BCF8C0A0C0A0B51B
:101CE000C3BDFBC7BDC3ADBDC3BDA1FFBDC3BDBDAE
:101CF000C3BDFFA1BDC3BD7EF5ADBFBEAE957E7EAB
:101D00009DAABEBEA9A57E7EADA9BEBEA9AD7E0020
:101D1000FC86848486FC000874828A82BCA06004ED
:101D20003A4185819E5030003874627264380000F8
:101D3000386C62464C780000305C46426478001093
:101D4000307FFFFF7F3010183C7EFF3C3C3C3C1C4A
:101D500034FC70707070201C347C707070F0201C2B
:101D600036FE7C7E7E7C381C367E7C7E7EFC382077
:101D700070707070FC341C20F07070707C341C38F3
:101D80007C7E7E7CFE361C38FC7E7E7C7E361C0093
:101D900000300814600000040830000060100000EB
:101DA00000002A2A2A2A00080CFEFFFFFE0C083C2D
:101DB0003C3C3CFF7E3C1800006699996600007E22
:101DC00095BF95BF957E00F00804324985C56931FD
:101DD0000101020408F40404040C1414141414146F
:101DE0001414141404FC0043B44810202060A0A074
:101DF00060202010C827282828282828C808081864
:101E0000688804E21DC0008040201008844221132D
:101E1000ECF020A7782024202020202078A720F094
:101E2000EC0B1020418000E01008080804040404B2
:101E3000040404048444444888081422D11120EF87
:101E4000D03E898181813E4040404043444848CC57
:101E5000464320D0EF000002028242C24242424288
:101E60004242C2448408F047407F008141018141E1
:101E7000018141007F201F1F2047485050584CF0DF
:101E80000804844242428200FE3A2A2A2E3E00FC86
:101E90008289A9A9A182FC000081ABFF810000FE1C
:101EA000445454545410FE001224796E341200002D
:101EB0000428726C120900000408726D10080000FA
:101EC0007050781C061208182848488884808000C2
:101ED000000000001C20408080808040201008040A
:101EE0002CC20202030501C12301020202020408FE
:101EF0001020C000817A048001F00868FC000038DE
:101F0000C080601F02442424E444060CF800000151
:101F1000FEEF9046712098B1424F78C000FF2040FC
:101F2000C080808080905020120F010E100F0000A2
:101F3000060D1120212222341811121C121514161C
:101F400015080000000000000000008080808080F4
:101F5000C0E0F0F8FCFCFEFEFEFFFFFFFFFFFFFE0F
:101F6000FEFEFEFCF8F0E0C0800003F7FFFFFFFF7D
:101F7000FFFFFFFFFFFFFFFFFFFFFFFFFFFFFFFF71
:101F8000FFFFFFFFFFFFFFFFFCDFFFFFFFFFFFFF84
:101F9000FFFFFFFFFFFFFFFFFFFFFFFFFFFFFFFF51
:101FA000FF7F3F1F3F7F3F1F01010F1F3F7FFFFF4D
:101FB000FFFFFF7F7F7F7F7F7F7F7F7F3B3B010036
:101FC0000000000000000040201C00000000008015
:101FD0008084884848281878040201010101010121
:101FE00001010101010101010101010101010101E1
:101FF00001010101010101010101010101010101D1
:10200000010101010101010204780000001010101B
:1020100010101010101010101010101010101010C0
:1020200010101010101010101010101010101010B0
:1020300010101010101010101010000000F0F8FC1C
:10204000FEFFFFFFFFFFFFFFFFFFFFFFFFFFFFFFA1
:10205000FFFFFFFFFFFFFFFFFFFFFFFFFFFFFFFF90
:10206000FFFFFFFFFFFFFFFFFFFFFFFFFFFFFEFC84
:10207000F8F0070F1F3F7F7F7F7F7F7F7F7F7F7F0E
:102080007F7F7F7F7F7F7F7F7F7F7F7F7F7F7F7F60
:102090007F7F7F7F7F7F7F7F7F7F7F7F7F7F7F7F50
:1020A0007F7F7F3F1F0F073078F8F8F8F8FFFFFFBA
:1020B000FF00000001010303030303FFFFFFFFF81C
:1020C000F8F8F8783003030303030101000000006F
:1020D000000000000000FFFF000000000000008082
:1020E00080808080808080010101010101010180E8
:1020F000808080808080FFFF808080808080800161
:10210000010101010101FFFF0101010101010100C4
:10211000642811241FBECFEFDAE0DEBFCDBF11E08F
:10212000A0E0B1E0EAEFFEE602C005900D92AE3607
:10213000B107D9F728E0AEE6B1E001C01D92AF3794
:10214000B207E1F710E1C9E8D0E104C02197FE0130
:102150000E947537C838D107C9F70E94A1280C948E
:102160007B370C940000E0914A08E93008F060C029
:10217000F0E0E354FF4E0C947537C610E210F210F5
:102180000E11191124113A114C115A1180914E0857
:1021900081110BC083E08093440882E0809345085E
:1021A000109247081092480843C0813009F040C09F
:1021B0008BE08093440884E08093450887E0809317
:1021C0004708F0CF80914E08811105C081E08093CF
:1021D000440884E0E3CF823059F588E080934408D6
:1021E00081E0DCCF80914E08813059F488E0809303
:1021F000440886E080934508109247088093480879
:102200000895833021F481E080934408C7CF84305F
:1022100079F48BE08093440881E0CECF80914E0822
:10222000853021F3843079F3823099F38730A9F235
:10223000089580914E088730C9F2823021F38330AF
:1022400041F38530A9F7C9CF80914E08843071F2EF
:10225000863059F48BE08093440884E080934508ED
:1022600087E08093470886E0C9CF873061F28330EA
:10227000F9F6B3CF80914E08873061F3853049F489
:1022800081E08093440884E08093450810924708D9
:10229000EACF883069F6A1CF80914E08833009F4E7
:1022A000A5CF853009F4B5CF863051F3843009F0DD
:1022B000BFCF93CF8AE08093440882E07DCFE8E9E6
:1022C000F1E0A0E0B8E000800EBC8111012C119774
:1022D000A0FDFDCF0192B9F70DB408958093970149
:1022E000EDE0F6E0108212821092100682E38093F5
:1022F000960108954EEA56E098E024E030E0FA01B5
:10230000E20FF31F8081873111F08B3111F482507D
:1023100080832F5F3F4F2D30310589F79150425F09
:102320005F4F9111EACF24E136E093E1F9014DE0EE
:1023300080815EE9580F543010F48F5F8083808174
:1023400059E9580F533010F48F5F8083808155E92D
:10235000580F523010F48F5F8083415031964111F5
:10236000E7CF9150225F3F4F9111E0CF08958091C8
:1023700046088130E1F038F0823069F1833009F4A9
:1023800053C080E050C08091450890914808482F84
:10239000490F5527551F452BA1F320914408309133
:1023A0004708230F30E0890F815090E028C020912A
:1023B000440880914708622F680F7727771F280FFE
:1023C0002F5F63317105ECF630E080914508909104
:1023D0004808890FEACF8091450890914808482F16
:1023E000490F5527551F4D3051055CF6890F8F5FFA
:1023F00090E02091440830914708230F30E040914D
:102400004A0841111FC06EE0629FA001639F500DFA
:1024100011244C5E594F840F951FFC01908181E07F
:10242000973C09F0AECF0895209144088091470869
:10243000622F680F7727771F672B09F4A2CF280F29
:102440002150C2CF4EE0429FF001439FF00D112476
:10245000E80FF91FE45DF84FE1CFCF93DF9350E031
:1024600030E0B0914A08E091440890914708E90FA4
:10247000FF27FF1F4E175F07B9F5E09145089091C0
:102480004808E90FFF27FF1FE217F30769F5282F18
:1024900030E070E0B1111DC04EE0429FC001439F8B
:1024A000900D11248C5E994F680F791FFB0180817C
:1024B0008D7F883759F4809198058150990B97FD4D
:1024C00080E0809398058AE08093BC05DF91CF91EE
:1024D00008958EE0829FF001839FF00D1124E60F96
:1024E000F71FE45DF84FE3CFEEE0E49FE001E59FE6
:1024F000D00D1124B1112DC0CC5ED94FC20FD31F06
:102500009881963C19F7E89FF0011124EC5EF94F91
:10251000E60FF11DA081AF5F90E070E0B1112BC01C
:10252000BEE0B49FF001B59FF00D1124EC5EF94FB1
:102530002E0F3F1FF901A083B89F9001B99F300D66
:1025400011242C5E394F620F731F86ECFB018083D0
:10255000BDCFC20FD31FC45DD84F9881963C09F000
:10256000B5CFE89FF0011124EC5EF94FE60FF11DA5
:10257000E85EFE4FCFCFBEE0B49FF001B59FF00DF7
:102580001124E20FF31FE45DF84FA083B89FF00120
:10259000B99FF00D1124E60FF71FE45DF84F86ECAC
:1025A000D6CFFC0180919401882311F13FB7F894B4
:1025B00082E08093E9002091F200822F90E01816CB
:1025C000190614F481E090E0882339F0289844E655
:1025D000409393014091F1004083222339F02091F0
:1025E000F200211103C02BE62093E8003FBF0895BD
:1025F0008FEF9FEF08952FB7F89483E08093E90061
:102600009091E800892F807295FF04C09091F200AC
:1026100080E4891B2FBF089580918B0181110DC02B
:1026200082E08093870184E08093880110928A0180
:102630001092890181E080938B0187E891E00895F1
:10264000CF93DF931F92CDB7DEB76983DC01ED91A5
:10265000FC910280F381E02D41E050E0BE016F5F0C
:102660007F4F09950F90DF91CF91089583E080937C
:10267000E9008091F200882319F08AE38093E80052
:1026800008950E94FB1290E00895CF93DF931F926C
:10269000CDB7DEB7FC018485958597FD08C02FEF87
:1026A0003FEF358724870F90DF91CF910895CE01BA
:1026B00001960E94D112019719F4898190E0F3CF1D
:1026C0008FEF9FEFF0CF0F931F93CF93DF931F9266
:1026D000CDB7DEB78C01FC018485958597FF0BC0D3
:1026E000CE0101960E94D112019771F4898190E088
:1026F000F80195878487F801848595850F90DF918F
:10270000CF911F910F9108958FEF9FEFF1CFFC01B3
:102710008485958597FD0BC09FB7F89482E08093E0
:10272000E9008091F2009FBF90E0019608959FB765
:10273000F89482E08093E9008091F2009FBF90E0DE
:102740000895409181015091820120917F01309143
:10275000800142175307B4F49091E8009570E1F3BB
:102760009091E80092FD19C08093F1008091810161
:102770009091820101968F739927892B19F48EEF1E
:102780008093E8008091810190918201019690935D
:1027900082018093810181E0089580E00895DF92B5
:1027A000EF92FF920F931F93CF93DF93D82E8A015E
:1027B000EB017B01E40EF51ECE15DF0559F0D7FEC7
:1027C00012C0FE0184910E94A11321968111F4CFC1
:1027D0000FEF1FEFC801DF91CF911F910F91FF9075
:1027E000EF90DF9008958881EECF0F931F93CF93E2
:1027F000DF931F92CDB7DEB782E0898342E450E0D9
:102800006AE479E180E80E94CF130E940C13DC0196
:1028100012960D911C910115110589F0D801ED91C9
:10282000FC910280F381E02DBE016F5F7F4FC801F4
:10283000099597FD04C0F80100851185ECCF8981C9
:102840000F90DF91CF911F910F910895615030F05B
:102850002091F100FC0120830196F8CF289884E6AE
:102860008093930108953FB7F89480916F01909100
:102870007001A0917101B091720126B5A89B05C0AD
:102880002F3F19F00196A11DB11D3FBFBA2FA92FEF
:10289000982F8827BC01CD01620F711D811D911DEC
:1028A00042E0660F771F881F991F4A95D1F7089558
:1028B0008F929F92AF92BF92CF92DF92EF92FF9250
:1028C0006B017C010E9433144B015C01C114D104E3
:1028D000E104F104B9F00E943314681979098A09F6
:1028E0009B09683E73408105910580F321E0C21A7F
:1028F000D108E108F10888EE880E83E0981EA11C3B
:10290000B11CE4CFFF90EF90DF90CF90BF90AF90DD
:102910009F908F9008958F929F92AF92BF92CF9287
:10292000DF92EF92FF920F931F93CF93DF936C018F
:102930007B018A0180910C01882309F45CC080919D
:102940009401882309F457C08091860180FF05C057
:102950008091E00082608093E000E801B12C8AEF72
:10296000A82E93E0892E2AE3922E209711F4BB2003
:10297000D9F10E94FB1281110AC0AA94AA20D9F1B0
:1029800061E070E080E090E00E945814EECF8C1778
:102990001D0611F00CF08C2F9FB7F8948092E9007F
:1029A0002091E80025FD02C09FBFDFCF282F30E037
:1029B000C21BD30BF701815020F041914093F100ED
:1029C000FACFE20EF31EBB2021F09092E800B12C6A
:1029D000EBCF8091E80085FDE7CF9092E800BB2423
:1029E000B394209709F3F3CF5D9884E68093850133
:1029F000101611063CF081E090E0F601938382838B
:102A000010E000E0C801DF91CF911F910F91FF907E
:102A1000EF90DF90CF90BF90AF909F908F900895F0
:102A20002D9A0895BC0190E080E00C9458148FB169
:102A30008095807F669B88601C9B84600895909140
:102A40007301982329F490917401982381E009F48B
:102A500080E00895CF93C82F0E941715982F9C23CC
:102A600081E09C1380E0CF9108953F924F925F9256
:102A70006F927F928F929F92AF92BF92CF92DF928E
:102A8000EF92FF920F931F93CF93DF9330E0F90102
:102A9000E80FF91F1E161F060CF0C1C08038910503
:102AA0000CF0BDC0FB01E00FF11D1E161F060CF05F
:102AB000B6C0603471050CF0B2C0DB0177FF04C012
:102AC000AA27BB27A61BB70BA770BB27FB0177FD67
:102AD0003796C3E0F595E795CA95E1F777FF07C00C
:102AE000319768E070E0EB01CA1BDB0BDE01402E82
:102AF000469446944694512C077019F0DFEF4D1A16
:102B00005D0ABF01EF01D695DC2FCC27D795C7957D
:102B1000C80FD91FC856DE4F8A01460E571E48E01F
:102B200050E04A018A1A9B0A4616570609F477C0F4
:102B30006830710509F473C06F3FEFEF7E070CF446
:102B40004BC06C0150E040E03E01E0E86E0E711CAD
:102B5000D7FC35C06F3F760709F45DC05E01A40E57
:102B6000B51EF501F080F801E40FF51F332433940E
:102B7000E31039C0E4910A2E01C0EE0F0A94EAF77F
:102B8000FE2AF501F0821097D1F067307105B9F097
:102B90005301A40EB51EF501F080FA01E00FF11FFC
:102BA00033243394E3102BC0E491F0E0082C02C0EE
:102BB000F595E7950A94E2F7FE2AF501F0824F5F5A
:102BC0005F4FFFEFCF1ADF0A421753072CF4F0E8EC
:102BD000CF16D10409F0BCCF6F5F7F4FC058DF4FD5
:102BE000020F131FA1CFE491F0E00A2E02C0EE0FF6
:102BF000FF1F0A94E2F7E095F095FE22C2CFE49120
:102C0000F0E0082C02C0F595E7950A94E2F7E0950C
:102C1000F095FE22D2CF109709F0BACFD0CFDF9136
:102C2000CF911F910F91FF90EF90DF90CF90BF90C9
:102C3000AF909F908F907F906F905F904F903F905C
:102C40000895EF920F93CF93DF93EE24E39408E07F
:102C500028E047E051E270E060E090E080E00E9410
:102C6000351528E04FEF50E270E060E088E790E033
:102C70000E94351528E047EF50E268E370E090E0ED
:102C800080E00E94351528E04FEE50E268E370E0E6
:102C900088E790E00E943515C8E0D0E0EE24E39488
:102CA00008E028E047EE50E270E060E0CE010E94CC
:102CB000351528E04FED50E268E370E0CE010E9448
:102CC00035152896C837D10549F7C8E0D0E0EE247D
:102CD000E39408E028E047ED50E2BE0190E080E098
:102CE0000E94351528E04FEC50E2BE0188E790E0E5
:102CF0000E9435152896C833D10549F7DF91CF9149
:102D00000F91EF900895EF920F93E12C0AE02AE0E3
:102D10004BEB50E265E370E087E590E00E943515EB
:102D20002AE047EA50E265E370E082E290E00E9428
:102D300035150FE025E34DE350E260E370E087E2F4
:102D400090E00E943515EE24E3940DE023E347ED77
:102D50005FE161E370E088E290E00E9435158091C8
:102D6000630847EC5FE1882311F04FEC5FE1EE244C
:102D7000E39408E028E066E370E088E590E00E94D4
:102D800035158091630847EC5EE1882311F04FEC24
:102D90005EE1EE24E39408E028E066E370E083E27D
:102DA00090E00E943515E0916408F0E0EE0FFF1FFF
:102DB000ED59F74F438154810DE02BE263E370E05E
:102DC0008CE290E00E943515E12C00E22FE14BE40B
:102DD0005FE163E270E083E090E00E943515EE244D
:102DE000E3940EE12DE147ED5EE164E270E084E002
:102DF00090E00E9435150F91EF900895EF920F9398
:102E0000CF93DF93EE24E39408E028E047E051E21B
:102E100070E060E088E690E00E94351528E047EF1A
:102E200050E268E370E088E690E00E94351528E003
:102E300047EE50E270E060E080E790E00E943515D8
:102E400028E04FED50E268E370E080E790E00E94F8
:102E5000351528E04FEF50E270E060E088E790E041
:102E60000E94351528E04FEE50E268E370E088E7F5
:102E700090E00E943515C8E0D0E0EE24E39408E02D
:102E800028E047ED50E2BE0188E690E00E9435154B
:102E900028E04FEC50E2BE0188E790E00E94351533
:102EA0002896C833D10549F7DF91CF910F91EF9064
:102EB0000895EF920F9390919E05491780F038E0A6
:102EC000639FB0011124EE24E39408E028E04FEB67
:102ED0005EE138E0839FC00111240E9435150F91F7
:102EE000EF900895EF920F9390914C0820919501E7
:102EF00060914508809144082830D8F4923031F42C
:102F000090914B0847E05AE1923010F44FEF59E1AD
:102F100038E0639FB0011124EE24E39408E028E038
:102F200038E0839FC00111240E9435150F91EF9066
:102F30000895923031F490914B0847E15AE1923074
:102F400010F44FE05AE198E0699FB0011124E4CFFA
:102F5000EF920F9390914C08209195016091450854
:102F6000809144082830D8F4923031F490914B0885
:102F700047EE59E1923010F44FED59E138E0639F8C
:102F8000B0011124EE24E39408E028E038E0839FA8
:102F9000C00111240E9435150F91EF9008959230D1
:102FA00031F490914B0847EF59E1923010F44FEE15
:102FB00059E198E0699FB0011124E4CF8038910570
:102FC000B8F460347105A0F420E191E061FD94E073
:102FD00060FD990F62FD9295687F269FD0011124B4
:102FE000A80FA856BE4F8C9140FF03C0892B8C932D
:102FF000089590958923FBCFEF920F93FC01862FC4
:10300000342F9E2D9130B1F038F09230E9F09330AA
:1030100001F10F91EF90089562817381620F711D2C
:10302000208131814481820F932F911D0F91EF9068
:103030000C94DE1762817381620F711D8081918112
:103040004481830F911DF2CF62817381600F711DE6
:10305000E7CF62817381600F711DF0CFEF920F9304
:10306000CF93DF934A30510561057105C0F4E22E1C
:10307000EC01FA01E25CF74E0C94753748185418CD
:10308000591862185C18651870186A187B18761839
:1030900003E020E041E062E0CE010E94FC17DF91F6
:1030A000CF910F91EF90089503E020E040E063E0BE
:1030B000F3CF02E021E0EECF40E050E0BA01CE01D4
:1030C0000E942E1802E021E0F1CF41E050E060E0E4
:1030D00070E0F5CF40E050E0BA01CE010E942E181A
:1030E0002E2D42E050E060E070E0E9CF40E050E09B
:1030F000BA010E942E182E2D41E050E060E070E0F1
:10310000ECCF4F925F926F927F928F929F92AF928D
:10311000BF92CF92DF92EF92FF92CF934B015C016F
:10312000B7FE08C0B094A09490948094811C911C28
:10313000A11CB11C8AE0C82ED12CE12CF12CC0E0DE
:10314000C501B401A70196010E941C372B013C0167
:1031500040E050E0BA01411451046104710471F07F
:10316000C701B6012AE030E040E050E00E941C3781
:10317000C301B2010E941C37BA01A9012C2F88E7B4
:1031800098E00E942E18AAE0B0E0A70196010E94E4
:1031900009376B017C01CF5FC43091F6CF91FF906E
:1031A000EF90DF90CF90BF90AF909F908F907F90E7
:1031B0006F905F904F90089582E390E00E94121507
:1031C0000E9417158111F8CF0895EF920F93962F53
:1031D000E42FE150FF0BBF01289F600D711D1124EA
:1031E000EE24E39405E024E042EB5DE0892F90E0DB
:1031F0000E9435150F91EF90089588E00E941F15E9
:10320000811103C080E20C941F15089584E00E9490
:103210001F15811103C080E40C941F1508950F93AE
:103220001F93CF93DF938C01D62F862F0E941F15FB
:10323000C82F882351F082E0F8018083C1E08C2FF1
:10324000DF91CF911F910F9108958D2F0E942A1524
:10325000882321F0F8018081882369F38D2F0E9453
:103260002A15882339F0F8018081882341F38150A1
:103270008083E5CFC0E0E3CFFC01208131812F5F67
:103280003F4F2031F7E23F0710F02FE037E2FC011B
:1032900031832083089580914A08811124C0809150
:1032A0009805843008F484E08093980589E0809341
:1032B0009B058CE995E00E943C1910924E081092F3
:1032C0007D0810927E0810924F0810924B0888ECEF
:1032D0008093500881E080934608809349080E94BB
:1032E000B3100C947A110895DF92EF92FF920F932E
:1032F0001F93CF93DF9340914608FF24F394DD247E
:10330000D394443050F4842F90E0FC01EF5AFE4FE8
:10331000D080835B9E4FFC01F080109145080091A6
:103320004808C0914408E090470850914A088C2F03
:103330008E0D81508D0D90E0212F200F21502F0DEB
:1033400030E06EE0689FF001699FF00D112451118B
:1033500013C0EC5EF94FE20FF31FD08160914C086F
:10336000613009F42AC168F0623009F44DC163305C
:1033700009F4D3C1D0E018C1E20FF31FE45DF84FA8
:10338000ECCFD0919B05DD2309F400C15111F2CFA0
:103390000E94B711882371F380914D08823009F49F
:1033A00083C038F4882389F1813009F457C0D1E013
:1033B000FBC0843009F4C4C008F49CC08530B9F760
:1033C0008091A9059091AA05009789F301979093A0
:1033D000AA058093A905EC2FEE0DFF27FF1F9F0183
:1033E0002D0D311D215031098EE0829FF001839F08
:1033F000F00D1124EC5EF94FE10FF11DE00FF11D0E
:10340000EF0DF11D319781E424C080919F059091CB
:10341000A005009761F201979093A00580939F0506
:103420008C2F8E0D9927991F9C012D0D311D215038
:1034300031098EE0829FF001839FF00D1124EC5E34
:10344000F94FE10FF11DE00FF11DEF0DF11D319767
:103450008BE68083D150D0939B05A9CF8091A105A5
:103460009091A205009709F4A2CF01979093A2052D
:103470008093A105EC2FEE0DFF27FF1F9F012D0D5F
:10348000311D215031098EE0829FF001839FF00DA4
:103490001124EC5EF94FE10FF11DE00FF11DEF0D6E
:1034A000F11D319787E6D5CF8091A3059091A405B2
:1034B000009709F47CCF01979093A4058093A3050E
:1034C0008C2F8E0D9927991F9C012D0D311D215098
:1034D00031098EE0829FF001839FF00D1124EC5E94
:1034E000F94FE10FF11DE00FF11DEF0DF11D3197C7
:1034F00082E6AFCF8091A5059091A605009709F4CB
:1035000056CF01979093A6058093A505EC2FEE0D5D
:10351000FF27FF1F9F012D0D311D215031098EE026
:10352000829FF001839FF00D1124EC5EF94FE10FB3
:10353000F11DE00FF11DEF0DF11D319787E589CFEA
:103540008091A7059091A805009709F430CF0197C5
:103550009093A8058093A7058C2F8E0D9927991F0E
:103560009C012D0D311D215031098EE0829FF0010B
:10357000839FF00D1124EC5EF94FE10FF11DE00F78
:10358000F11DEF0DF11D31978CE463CF809198050B
:10359000823008F4EFCE8150809398058AE08093C2
:1035A000BC0585E080937E088D2FDF91CF911F9120
:1035B0000F91FF90EF90DF900895D53119F0D93138
:1035C00009F0D8CEDE5F511114C06EE0689FA001F3
:1035D000699F500D11244C5E594F240F351FF9017E
:1035E000D0838AEB95E00E943C1985E080937D08AA
:1035F000DECE4EE0489FF001499FF00D1124E20F0E
:10360000F31FE45DF84FECCF413009F443C060F1A3
:10361000423009F452C0433009F463C0D857DE3455
:1036200008F0A8CED0914A0820914408C0914708DC
:103630002C0F21502D0D30E08091450890914808C5
:10364000890F81508F0D90E0D1115AC06EE0629FBA
:10365000A001639F500D11244C5E594F840F951F9C
:1036600026ECFC012083A0CF212F2150330BB90180
:1036700053E0660F771F5A95E1F7EE24E39408E0D4
:1036800028E047ED59E138E0C39FC00111240E94B2
:103690003515C4CF88E0189FB00111248C2F90E01D
:1036A0000196EE24E39408E028E04FEC59E133E082
:1036B000880F991F3A95E1F7EACF612F70E06F5FAD
:1036C0007F4F43E0660F771F4A95E1F7EE24E394BE
:1036D00008E028E047EC59E1E8E0CE9FC001112462
:1036E000D6CFF8E01F9FB00111242C2F2150330BAF
:1036F000C901EE24E39408E028E04FEB59E1D7CF6D
:103700004EE0429FF001439FF00D1124E80FF91F96
:10371000E45DF84F86EC80832DCE8091AC059091CE
:10372000AD05009709F426CE20919805293008F0C0
:1037300021CE8130910549F001979093AD0580939A
:10374000AC052F5F2093980515CE90E080E0F5CF73
:10375000CF93DF93EC0180E80E941F15882329F0A6
:103760008881882311F08150888380E10E941F1591
:10377000882331F088819981891710F48F5F8883BD
:10378000DF91CF9108954F925F926F927F928F92C7
:103790009F92AF92BF92CF92DF92EF920F931F93BF
:1037A000CF93DF934A0157FF03C09194819491080E
:1037B000C82ED12CE60164969AE0A92EB12C2AE0FD
:1037C000622E712C462E512C1AE0C401B5010E94C4
:1037D0004D379C0170E060E0892B39F0C501B301E1
:1037E0000E944D37C9010E944D37660F771FFB01BC
:1037F000E75CFE4F40815181EE24E39404E024E035
:10380000B201CE010E943515C501189F5001199FC4
:10381000B00C11242597CC16DD06B9F6DF91CF91B7
:103820001F910F91EF90DF90CF90BF90AF909F903E
:103830008F907F906F905F904F9008955F926F92FE
:103840007F928F929F92AF92BF92CF92DF92EF9230
:10385000FF920F931F93CF93DF936C014EEA56E0D4
:1038600028E036EC84E090E0FA01E80FF91F30839D
:1038700001968D309105C1F72150425F5F4F2111B4
:10388000F1CFB12CA12C88E0E82EF12C9EE0592E2E
:1038900024E1822E09E010E035E1932EF6018081CB
:1038A000A81618F53501FBE06F0E711C0E94173643
:1038B000B7010E946137569CE001579CD00D11243E
:1038C000CC5ED94FFE01E80FF91F85820E941736A2
:1038D000B8010E946137C80FD91F9C828FEFA81AC8
:1038E000B80AE8E0AE16B104C9F6DF91CF911F9196
:1038F0000F91FF90EF90DF90CF90BF90AF909F908F
:103900008F907F906F905F900895CF93DF93909109
:103910009E05491720F1C62FD82F0E94173648E080
:10392000D49F900111242E5F3F4F3093790820934C
:10393000780828E0C29FB00111246E5F7F4F70931A
:103940007B0860937A0860E177E20E946137BC01EE
:10395000990F880B990BDF91CF910C948118DF910F
:10396000CF910895CF92DF92EF920F931F93CF9351
:10397000DF93E62F622F90914408941305C0909135
:103980004508921709F4B1C0082F10E0F0E08091CB
:103990004A0881118FC08EE0809FD001819FB00DB9
:1039A0001124AC5EB94FEA0FFB1FE081EB3708F042
:1039B0009CC0842FF0E0E152F34E0C947537651DE6
:1039C0007D1D881D931D9E1DA91DB41DBF1DC91DF4
:1039D000CB1DCD1DD81DE31DEE1DF91D041E0F1EB0
:1039E0001A1E2A1E3A1E451E561E751D5F1E751D87
:1039F000681E751D711E751D7A1E8A1E9A1EA51ED3
:103A0000B01EBB1E751D751DC51E751D751DF81ECE
:103A1000031F0E1F191F241F2F1F3A1F451F501F62
:103A20005B1F751D751D751D751D751D661F751D2B
:103A3000751D751D751D751D751D751D751D751DF6
:103A4000681F731F7E1F891F941F9F1FAA1FB51F0A
:103A5000C01FCB1FD61FE11FEC1FF71F02200D2038
:103A6000182023202E20392044204F205A20652062
:103A700070207B20862091209C20A720B220BD2092
:103A8000C820D320DE20E920F420FF200A211521C0
:103A900020212B21362141214C21572161216321F5
:103AA000751D751D751D751D751D751D751D652192
:103AB000751D6F212EE0209FC001219F900D1124C4
:103AC000E80FF91FE45DF84F70CF28E0629FB00166
:103AD0001124EE24E39408E028E047EB5EE138E0AF
:103AE000839FC00111240E943515DF91CF911F9152
:103AF0000F91EF90DF90CF90089598E0699FB0010B
:103B00001124EE24E39408E028E04FEA5EE1E7CFD9
:103B100098E0699FB0011124EE24E39408E028E0C6
:103B200047EA5EE1DCCF98E0699FB0011124EE2402
:103B3000E39408E028E04FE95EE1D1CF98E0699F87
:103B4000B0011124EE24E39408E028E047E95EE1A7
:103B5000C6CF98E0699FB0011124EE24E39408E0F9
:103B600028E04FE85EE1BBCF98E0699FB0011124E7
:103B7000EE24E39408E028E047E85EE1B0CF40E0BF
:103B8000DF91CF911F910F91EF90DF90CF900C9428
:103B9000851C41E0F5CF42E0F3CF98E0699FB0018A
:103BA0001124EE24E39408E028E04FE75EE197CF8C
:103BB00098E0699FB0011124EE24E39408E028E026
:103BC00047E75EE18CCF98E0699FB0011124EE24B5
:103BD000E39400E120E147E55EE181CF98E0699F51
:103BE000B0011124EE24E39400E128E147E25EE114
:103BF00076CF98E0699FB0011124EE24E39408E1A8
:103C000020E247EC5DE16BCF98E0699FB0011124A1
:103C1000EE24E39408E028E04FEB5DE160CF98E00C
:103C2000699FB0011124EE24E39408E028E047EBFB
:103C30005DE155CF90919501983008F056CF98E00E
:103C4000699FB0011124EE24E39408E028E04FEAD4
:103C50005DE145CF90919501983008F046CF98E00E
:103C6000699FB0011124EE24E39408E028E047EABC
:103C70005DE135CF98E0699FB0011124EE24E39413
:103C800008E028E04FE95DE12ACF9091950147E9EE
:103C90005DE1983010F04FE85DE198E0699FB00178
:103CA0001124EE24E39408E028E019CF90919501C7
:103CB00047E85DE1983088F34FE75DE1EECF909102
:103CC000950147E75DE1983040F34FE65DE1E5CFD0
:103CD0009091950147E65DE19830F8F24FE55DE19E
:103CE000DCCF9091950147E55DE19830B0F24FE46B
:103CF0005DE1D3CF90919501983008F0F6CE98E031
:103D0000699FB0011124EE24E39408E028E047E421
:103D10005DE1E5CE90919501983008F0E6CE98E00F
:103D2000699FB0011124EE24E39408E028E04FE3FA
:103D30005DE1D5CE98E0699FB0011124EE24E394B3
:103D400008E028E047E35DE1CACE98E0699FB00152
:103D50001124EE24E39408E028E04FE25DE1BFCEB9
:103D600098E0699FB0011124EE24E39408E028E074
:103D700047E25DE1B4CE909195014FE15DE198306D
:103D800008F48BCF47E15DE188CF98E0699FE001BF
:103D9000112428E0429F60011124EE24E39408E0FE
:103DA00028E04FE05DE1BE01C6010E94351560913B
:103DB000990570919A05603137E2730710F06FE052
:103DC00077E290E080E022E0C20ED11CD092790828
:103DD000C09278082396D0937B08C0937A08DF912D
:103DE000CF911F910F91EF90DF90CF900C9481189D
:103DF00038E0639FB0011124EE24E39408E028E04A
:103E000047E05DE16CCE98E0699FB0011124EE249B
:103E1000E39408E028E04FEF5CE161CE98E0699F11
:103E2000B0011124EE24E39408E028E047EF5CE1C0
:103E300056CE98E0699FB0011124EE24E39408E087
:103E400028E04FEE5CE14BCE98E0699FB001112471
:103E5000EE24E39408E028E047EE5CE140CE98E0F1
:103E6000699FB0011124EE24E39408E028E04FEDAF
:103E70005CE135CE98E0699FB0011124EE24E39413
:103E800008E028E047ED5CE12ACE98E0699FB001A8
:103E90001124EE24E39408E028E04FEC5CE11FCE0F
:103EA00098E0699FB0011124EE24E39408E028E033
:103EB00047EC5CE114CE98E0699FB0011124EE2438
:103EC000E39400E320E347EA5BE109CE43E058CE08
:103ED00098E0699FB0011124EE24E39408E028E003
:103EE0004FE95BE1FCCD98E0699FB0011124EE241D
:103EF000E39408E028E047E95BE1F1CD98E0699FB1
:103F0000B0011124EE24E39408E028E04FE85BE1DF
:103F1000E6CD98E0699FB0011124EE24E39408E017
:103F200028E047E85BE1DBCD98E0699FB001112410
:103F3000EE24E39408E028E04FE75BE1D0CD98E081
:103F4000699FB0011124EE24E39408E028E047E7DC
:103F50005BE1C5CD98E0699FB0011124EE24E394A4
:103F600008E028E04FE65BE1BACD98E0699FB00138
:103F70001124EE24E39408E028E047E65BE1AFCDAE
:103F800098E0699FB0011124EE24E39408E028E052
:103F90004FE55BE1A4CD98E0699FB0011124EE24C8
:103FA000E39408E028E047E55BE199CD98E0699F5C
:103FB000B0011124EE24E39408E028E04FE45BE133
:103FC0008ECD98E0699FB0011124EE24E39408E0BF
:103FD00028E047E45BE183CD98E0699FB0011124BC
:103FE000EE24E39408E028E04FE35BE178CD98E02D
:103FF000699FB0011124EE24E39408E028E047E330
:104000005BE16DCD98E0699FB0011124EE24E3944B
:1040100008E028E04FE25BE162CD98E0699FB001E3
:104020001124EE24E39408E028E047E25BE157CD59
:1040300098E0699FB0011124EE24E39408E028E0A1
:104040004FE15BE14CCD98E0699FB0011124EE2473
:10405000E39408E028E047E15BE141CD98E0699F07
:10406000B0011124EE24E39408E028E04FE05BE186
:1040700036CD98E0699FB0011124EE24E39408E066
:1040800028E047E05BE12BCD98E0699FB001112467
:10409000EE24E39408E028E04FEF5AE120CD98E0C9
:1040A000699FB0011124EE24E39408E028E047EF73
:1040B0005AE115CD98E0699FB0011124EE24E394F4
:1040C00008E028E04FEE5AE10ACD98E0699FB00180
:1040D0001124EE24E39408E028E047EE5AE1FFCCF7
:1040E00098E0699FB0011124EE24E39408E028E0F1
:1040F0004FED5AE1F4CC98E0699FB0011124EE2411
:10410000E39408E028E047ED5AE1E9CC98E0699FA4
:10411000B0011124EE24E39408E028E04FEC5AE1CA
:10412000DECC98E0699FB0011124EE24E39408E00E
:1041300028E047EC5AE1D3CC98E0699FB001112404
:10414000EE24E39408E028E04FEB5AE1C8CC98E075
:10415000699FB0011124EE24E39408E028E047EBC6
:104160005AE1BDCC98E0699FB0011124EE24E3949C
:1041700008E028E04FEA5AE1B2CC98E0699FB0012C
:104180001124EE24E39408E028E047EA5AE1A7CCA2
:1041900098E0699FB0011124EE24E39408E028E040
:1041A0004FE95AE19CCC98E0699FB0011124EE24BC
:1041B000E39408E028E047E95AE191CC98E0699F50
:1041C000B0011124EE24E39408E028E04FE85AE11E
:1041D00086CC98E0699FB0011124EE24E39408E0B6
:1041E00028E047E85AE17BCC98E0699FB0011124B0
:1041F000EE24E39408E028E04FE75AE170CC98E021
:10420000699FB0011124EE24E39408E028E047E719
:104210005AE165CC98E0699FB0011124EE24E39443
:1042200008E028E04FE65AE15ACC98E0699FB001D7
:104230001124EE24E39408E028E047E65AE14FCC4D
:1042400098E0699FB0011124EE24E39408E028E08F
:104250004FE55AE144CC98E0699FB0011124EE2467
:10426000E39408E028E047E55AE139CC98E0699FFB
:10427000B0011124EE24E39408E028E04FE45AE171
:104280002ECC98E0699FB0011124EE24E39408E05D
:1042900028E047E45AE123CC98E0699FB00111245B
:1042A000EE24E39408E028E04FE35AE118CC40E024
:1042B000DF91CF911F910F91EF90DF90CF900C94F1
:1042C000591741E0F5CF42E0F3CF9091950147E3D4
:1042D0005AE1983008F4E1CC4FE25AE1DECC9091FB
:1042E000950147E25AE1983008F4D7CC4FE15AE102
:1042F000D4CC8F929F92AF92BF92CF92DF92EF92E7
:10430000FF920F931F93CF93DF93CDB7DEB7C851C2
:10431000D1400FB6F894DEBF0FBECDBFE0914A0882
:10432000F0E0EE0FFF1FEF5AF74F6081718148E117
:1043300051E0CE0101960E94CB36CE0101966C0170
:1043400064E1E62E66E0F62E75E2972EE3E0AE2EEF
:10435000B12CF6EC8F2E10E000E0F601E00FF11F1B
:10436000808190914A08F701E00FF11F992329F00D
:10437000F801E85EFE4FEE0DFF1D8083813009F4E9
:1043800046C090F1823009F444C08F3309F448C02C
:104390000F5F1F4F0E30110501F79EE0E90EF11C73
:1043A000EEE0CE0ED11CFCE2EF16F7E0FF0699F628
:1043B00080914A08811136C08BEA95E00E941E1C4C
:1043C000C85EDE4F0FB6F894DEBF0FBECDBFDF91E3
:1043D000CF911F910F91FF90EF90DF90CF90BF9002
:1043E000AF909F908F9008950E941736B5010E945C
:1043F000613790914A08F701E00FF11F992329F0E6
:10440000F801E85EFE4FEE0DFF1D8083C1CF808274
:10441000BFCF0E941736B5010E946137815EE9CF98
:104420009082B6CF823060F2F12CE12C94E6A92E76
:10443000B12C26E6C22E34E1932E48E7842E870164
:10444000025C194F87E0D82E80914A08F80181114B
:104450001FC08381863C79F40E941736B5010E9403
:1044600061370A970CF580914A088830A8F48111C9
:1044700019C0F8018382DA940F5F1F4FD110E4CF87
:10448000FEE0EF0EF11C86EBE816F104C1F698CFC2
:10449000E55EFE4F8081DECF8AE7F801E55EFE4FE4
:1044A0008083E9CF88E7F9CF0E941736B5010E94D3
:1044B0006137059704F780914A088830E0F6F801E3
:1044C00081110CC093820E94173680FDD4CF809159
:1044D0004A08F801811106C0C382CDCFE55EFE4FC8
:1044E0009082F1CFE55EFE4FC082C5CF80934A082F
:1044F0000E9479210E94B31081E0089580E00E941B
:10450000762210927D0810927E0810924F08109229
:104510004B0888EC8093500881E080934608809394
:10452000490810924D0810924C0883E0809344088B
:1045300082E0809345081092470810924808109234
:104540004E0810926308109264088EE1809365080B
:1045500010929D0510929C0510929E0584E190E0BA
:104560009093A00580939F051092A2051092A1053B
:104570001092A4051092A3051092A6051092A5050D
:104580001092A8051092A7051092AA051092A905ED
:104590001092AB051092AF051092AE051092B105C6
:1045A0001092B0051092B3051092B2051092B505A5
:1045B0001092B4051092B7051092B6051092B90585
:1045C0001092B8051092AD051092AC051092BB0583
:1045D0001092BA0588EC90E090939A058093990523
:1045E0001092BC0580919805843008F484E0809393
:1045F000980589E080939B058CE995E00C943C1923
:10460000AF92BF92CF92DF92EF92FF920F931F93E0
:10461000CF9300914408202F30E0FC01E20FF31FFC
:10462000EF3FFE0761F4C0E08C2FCF911F910F91F7
:10463000FF90EF90DF90CF90BF90AF900895E09003
:104640004508AB014E0D511D4F3F540761F33D9797
:1046500054F7483051053CF74091470850914A08BB
:10466000040F080F10E0E0914808EE0EE60EF12C62
:10467000AEE0A09FF001A19FF00D1124511119C0CF
:10468000EC5EF94FEE0DFF1DC081CD3309F42CC156
:10469000CE3309F42BC15B016C01C63099F4513063
:1046A00069F4240F311D273031050CF0BDCFC5E072
:1046B000BBCFEE0DFF1DE45DF84FE6CF5630D9F4C9
:1046C000C7E0B2CFCB3441F588EB95E00E943C19AE
:1046D00085E080937D0880914A0881115CC08EE05E
:1046E000809FF001819FF00D1124EC5EF94FEE0DDB
:1046F000FF1D87EC808392E99C0FE0914A0893307C
:1047000090F580919E05981770F18F5F80939E05BC
:1047100085E080937D0818C0C63529F486EB95E0C6
:104720000E943C19D5CFC13609F0E2C084EB95E078
:104730000E943C19CDCF82EB95E00E943C1985E0A8
:1047400080937D08E0914A08E11130C02EE0209F5F
:10475000C001219F900D11248C5E994FE80EF91E27
:1047600087ECD7018C93E0934E08E93008F062C0E3
:10477000F0E0E354FC4D0C947537E223F023FC2366
:1047800006241224362441244C24572480EB95E03F
:104790000E943C199DCF8EE0809FF001819FF00D1B
:1047A0001124EE0DFF1DE45DF84FA3CF8EE0809F36
:1047B000D001819FB00D1124AE0DBF1DA45DB84F77
:1047C00087ECD0CFC131B1F581E0CF911F910F912E
:1047D000FF90EF90DF90CF90BF90AF900C94762237
:1047E000CD3131F410924A080E94B310C1E01CCFC1
:1047F000C23101F582E0E9CFCE3131F3CD3111F490
:1048000083E0E3CFC131B1F484E0DFCFCE3111F4E6
:1048100085E0DBCFCD31C1F3C13161F3C23151F459
:1048200087E0D3CFCE31E1F3CD3121F3C13141F374
:10483000C23171F38FEE8C0F8E3068F08FEB8C0FDE
:10484000873348F0C63C38F4C730F1F580919E05B7
:10485000882309F4E8CE80914408C80EC092440829
:1048600060914508A60EA0924508C0CFCE3161F2F6
:10487000CD31B1F2C13111F486E0A7CFC231D1F60A
:10488000BFCFCD3131F480914408823008F288E006
:104890009CCFC13179F6C4CFCE3109F4B1CFCD313F
:1048A00059F3C13109F4B4CFC23121F6ADCFCD31C6
:1048B00039F48CE995E00E943C190E947A11E7CF07
:1048C000C13109F0B7CFD8CFC83029F480919E0507
:1048D000823008F6A8CEC93009F0A5CE80919E0599
:1048E000833008F0B8CF9FCEC2E09ECEC3E09CCE0E
:1048F000C63609F420CFCA3609F448CFCD3609F0C0
:10490000FACE8EEA95E00E943C19E2CE0C94D436A1
:10491000CF92DF92EF92FF920F931F93CF93DF938B
:10492000CDB7DEB7C851D1400FB6F894DEBF0FBE89
:10493000CDBF88E9E82E85E0F82E01E510E0C8013A
:104940000E94D436F70181937F010F5F1F4F063716
:104950001105A9F7CE0101967C0106E710E06C0174
:10496000C8010E94D436F70181937F010F5F1F4F6A
:104970000E38F1E01F07A1F788E191E0F601A4E10C
:10498000B6E001900D920197E1F7C85EDE4F0FB6D9
:10499000F894DEBF0FBECDBFDF91CF911F910F9175
:1049A000FF90EF90DF90CF900895FF920F931F93A9
:1049B000CF93DF93EC01F62E08811981C8010E9484
:1049C000D436F81621F06F2DC8010E94DC36CE01D6
:1049D000DF91CF911F910F91FF9008950F931F9337
:1049E000CF93DF9300D0CDB7DEB702E010E084E0D4
:1049F0000E942A15882309F440C02D9884E80E945B
:104A00002A158823C1F00E94101588EC90E00E94BE
:104A100012152F981A8309836FEFCE0101960E9419
:104A2000D52484EF91E00E9412152F9A84E80E9409
:104A30002A158111FBCF84E10E942A158823C1F039
:104A40000E94101588EC90E00E9412152E981A838F
:104A5000098360E0CE0101960E94D52484EF91E0A5
:104A60000E9412152E9A84E10E942A158111FBCF13
:104A700088EC90E00E941215BACF0E9410150F909A
:104A80000F90DF91CF911F910F9108951F920F9278
:104A90000FB60F9211248F939F938091E100909114
:104AA000E100937F9093E10083FF0FC01092E90033
:104AB00091E09093EB001092EC0092E39093ED0064
:104AC0001092940198E09093F00082FF22C093E04E
:104AD0009093E9009091F200992319F09AE3909352
:104AE000E80090918501992341F0909185019150C2
:104AF00090938501911101C05D9A90919301992342
:104B000041F090919301915090939301911101C0C4
:104B1000289A84FF18C08091E2008E7E8160809385
:104B2000E2008091E1008F7E8093E1008091860118
:104B30008E7E8061809386019F918F910F900FBE32
:104B40000F901F90189580FFF7CF8091E2008E7E26
:104B500080618093E2008091E1008E7E8093E1008D
:104B6000809186018E7E8160E5CF1F920F920FB6F5
:104B70000F921124CF92DF92EF92FF920F931F9327
:104B80002F933F934F935F936F937F938F939F9355
:104B9000AF93BF93EF93FF93CF93DF93CDB7DEB780
:104BA0006C97DEBFCDBF1092E9008091E80083FFD3
:104BB00025C068E0CE0145960E94261482EF8093BE
:104BC000E8008D8987FF39C09091E80090FFFCCF05
:104BD000982F907609F034C19E894F89588D2F897E
:104BE000F88C911131C0803861F5809184018093F7
:104BF000F1001092F1008EEF8093E8006C960FB6F2
:104C0000F894DEBF0FBECDBFDF91CF91FF91EF9142
:104C1000BF91AF919F918F917F916F915F914F91D4
:104C20003F912F911F910F91FF90EF90DF90CF90C8
:104C30000F900FBE0F901F9018959EEF9093E80075
:104C4000C7CF1092F100D5CF913059F48111D3CF55
:104C50004130510581F6809184018D7F80938401DC
:104C6000CACF933049F48111C6CF4130510519F6AE
:104C7000809184018260F2CF953041F48091E80008
:104C800080FFFCCF20682093E300B5CF963009F079
:104C9000A9C00B8D1C8D22E01092E90010928201B8
:104CA00010928101F2122EC01092800110927F01A9
:104CB0000E94F5131F8299E09983FA8291E09E8306
:104CC00090EA98879AEF998720918101309182012B
:104CD000275F3F4F3C832B838D831092E900109216
:104CE0008201109281011093800100937F0149E0BD
:104CF00050E0BE016F5F7F4F80E00E94CF130E94A3
:104D0000F51379CF1093800100937F010E940C135B
:104D1000DC0112960D911C910115110509F451C188
:104D2000D801ED91FC910480F581E02DBE016B5E10
:104D30007F4FC8010995009709F03EC1F801008531
:104D40001185EACFF3E0FF120EC08F89882309F4A2
:104D500040C0823061F440E860E18EEA99E10E944F
:104D60003128811148CF81E28093EB0047CF813019
:104D700029F440E86BE082EA99E1F1CF833099F7BA
:104D80000E940C13DC011296ED90FC908E010F5FD7
:104D90001F4F6801E114F10479F0D701ED91FC9106
:104DA0000680F781E02DB801C7010995080F111D94
:104DB000F701E084F184EECFD8011C92F601019056
:104DC0000020E9F73197BF016C197D0940E0C60169
:104DD000C6CF6CE879E1FB01449150E080E80E9485
:104DE000CF1309CF973009F4BECF983021F481E07A
:104DF0008093F10000CF993009F0FDCE837009F067
:104E0000B2CFE6E5F1E081E031E096E321912223A3
:104E100071F08093E9003093EB00DF0111972C9142
:104E20002093EC009093ED008F5F873079F78EE749
:104E30008093EA001092EA008F8980939401DBCE80
:104E40008B8D9C8D1092E90010928201109281014D
:104E50009093800180937F01898D811192C08E890A
:104E60009D89913A49F4813209F07DCF47E050E0C5
:104E700065E071E080E0B3CF913209F074CF833206
:104E800069F48F89988DB0E0A0E080930101909340
:104E90000201A0930301B0930401ADCE803269F406
:104EA0008091E80082FFFCCF67E085E091E00E94FE
:104EB00026148BEF8093E8009ECE823209F09BCEC1
:104EC0008F8980930C01EEEFFFE7859194918B3FE2
:104ED0009C4D51F1E0E0F8E08091050190910601D0
:104EE000A0910701B0910801803B9440A105B10554
:104EF000F1F480910C0180FD1AC0EE3F8AE0F807C2
:104F000089F587E797E7918380838091600080939C
:104F1000830188E19BE00FB6F894A8958093600028
:104F20000FBE9093600067CEEEEFFAE0D5CF8081A0
:104F300091818737974709F05ECEA89580916000F0
:104F40008861809360008091830180936000EE3FD0
:104F50002AE0F20789F08091FE0A9091FF0A91837E
:104F6000808349CE808191818737980751F2909351
:104F7000FF0A8093FE0AC5CF1092FF0A1092FE0A24
:104F80003ACE0E940C13DC0112960D911C91011572
:104F9000110509F4E8CED801ED91FC910190F08162
:104FA000E02DBE016B5E7F4FC8010995811123CEB4
:104FB000F80100851185EBCF181619060CF41BCEED
:104FC000D2CEF1E0FF12BECE60E979E104CF1F92AC
:104FD0000F920FB60F9211242F933F938F939F93AD
:104FE000AF93BF938091770190917801A09179015F
:104FF000B0917A0130916E0123E0230F2D3758F5DF
:105000000196A11DB11D20936E01809377019093AD
:105010007801A0937901B0937A0180916F0190910A
:105020007001A0917101B09172010196A11DB11D95
:1050300080936F0190937001A0937101B0937201FE
:10504000BF91AF919F918F913F912F910F900FBE84
:105050000F901F90189526E8230F0296A11DB11DF1
:10506000D2CFEF92FF920F931F93CF93DF93F82E3F
:10507000192FE62E042F81E0860F880F0E94A113BE
:1050800083E00E94A113CF2DD12FEC0EFD2EF11C39
:10509000CE15DF05B9F007FF13C0FE0184910E9411
:1050A000A113182F80E00E94A11381232196811162
:1050B000EFCFDF91CF911F910F91FF90EF90089567
:1050C0008881EDCF81E0F5CFEDEBF5E01382128220
:1050D00088EE93E0A0E0B0E084839583A683B78355
:1050E00080E691E0918380838FEF9FEF958784879F
:1050F000E8E7F8E0118210821382128281E0848353
:1051000092E1E5E1F1E0A6E6B8E001900D929A9512
:10511000E1F792E1E7E2F1E0A1E5B8E001900D925C
:105120009A95E1F7E2E1F6E010828183E0E1F6E0B2
:10513000108284E08183EDE0F6E0108285E08183D7
:105140000895CF93DF9300D0CDB7DEB7789484B5C0
:10515000826084BD84B5816084BD85B5826085BD73
:1051600085B5816085BD80916E00816080936E0001
:1051700010928100809181008260809381008091F3
:1051800081008160809381008091800081608093A4
:1051900080008091910082608093910080919100C5
:1051A0008160809391008091900081608093900055
:1051B0008091C10084608093C1008091C1008260B1
:1051C0008093C1008091C10081608093C100809173
:1051D000C30081608093C3008091C000826080938F
:1051E000C0008091C20081608093C20080917A00EB
:1051F000846080937A0080917A00826080937A0044
:1052000080917A00816080937A0080917A00806832
:1052100080937A001092940110928401109286017A
:105220008091D70081608093D70080EA8093D80076
:1052300089B5806189BD89B5826089BD09B400FEE8
:10524000FDCF61E070E080E090E00E945814809112
:10525000D8008F7C80618093D8008091E000807FAF
:105260008093E0008091E1008E7E8093E1008DE0EC
:105270008093E200559A209A81EC80937C0085B15E
:10528000806F85B984B1877E84B984B1876E84B913
:105290005E9A5F988AB1806D8AB9769A6E9881B36A
:1052A000806F81BB899880B38D7080BB80E58CBD99
:1052B00081E08DBD85E090E00E9412155F9A85E047
:1052C00090E00E9412155E985C98E6EBFDE083EC9E
:1052D0009DE024912EBD00000DB407FEFDCF319658
:1052E0008E179F07B1F75C9A81E8809364008091E4
:1052F000650081608093650080E00E945F1180E816
:105300000E942A158823A9F05C9885EA8EBD0000CA
:105310000DB407FEFDCF5C9A2E982F982D988091A2
:10532000640080628093640081E083BF889513BE2F
:10533000FCCF0E94EE2482E090E00E948624882325
:1053400009F48EC03E9A3F9A81E090E00E94862444
:10535000182F147081FF10C011112E9801EFC02E6C
:10536000DD24DA9480E40E942A15882309F47BC0A6
:105370002E9A2F9A0E9410150E94DC1882E48093C6
:105380000001809164008E7F8093640080917A0098
:10539000806480937A0080917A0086FDFCCF009132
:1053A0007800109179000E943314AB01BC01C80150
:1053B000B0E0A0E0DC01992788278C019D01040F53
:1053C000151F261F371FC901B801209164002160F5
:1053D00020936400611571058105910511F00E940B
:1053E000C2360E94EE240E94DC188FE6809375017D
:1053F0001092760180E590E00E9486248F3649F471
:105400008EE891E00E9486248F3619F481E0809323
:1054100076018FE0809395010E947E22E3E0CE2EFC
:10542000D12CF4E06F2E712C67E0862E76E0972E5B
:105430008FB7F8944091770150917801609179018C
:1054400070917A018FBF10917D011123E1F11092CB
:105450007D0180E090E0892B59F30E940000E4CFA9
:105460003E983F9871CF112331F004E0C016D1046B
:1054700011F42E9A2F9881E00E945F11EE24E3949C
:1054800000E128E543EC5DE0B60184E190E00E9494
:10549000351580E00E945F118FE090E00E941215A8
:1054A0002FEFC21AD20A39E1C316D10409F05ACF3C
:1054B000112311F02F9A2D9880E991E00E94121586
:1054C0000E94101559CF80917E01242F281B822F16
:1054D00090910001291748F48F5F891708F0B9CF20
:1054E00081E083BF889513BEB4CF81E080937D01B6
:1054F00040937E0180917B0190917C010196909375
:105500007C0180937B0180917401809373010E94E0
:10551000171580937401E8E9F1E011111FEF0024E1
:1055200011931193119311930394D1F780919701E3
:10553000823009F49CC288F4882351F1813009F447
:1055400040C180919501815011F40C94B83580933D
:10555000950180E00E945F117CCF833011F40C94A0
:105560007B33843071F7EE24E39408E02EE44CEFB3
:1055700058E169E170E089E190E00E943515809181
:105580009601882309F407C2815080939601FBC1DC
:105590000E941736E8E5F0E1E49190917B008E2FB0
:1055A000880F880F80729F7D892B80937B00E77026
:1055B000E064E0937C0080917A00806480937A00BC
:1055C00080917A0086FDFCCF8091780080917900EF
:1055D00010917601EE24E39408E124E34CEB5FE0C4
:1055E00070E060E089E490E00E94351580919501BB
:1055F00047E75FE0883010F042E35FE0EE24E39499
:1056000007E127E162E170E084E190E00E94351556
:10561000809195014EED5EE0883010F046EC5EE042
:10562000EE24E3940CE02CE06EE170E081E490E085
:105630000E94351508E02CE346EF5EE069E270E079
:1056400084E190E00E943515112309F453C004E071
:1056500028E14EEA5EE064E370E088E690E00E94B4
:10566000351528E141E751E16CE370E08DE690E00B
:105670000E94351528E044E362E6809112060E94FC
:10568000E518EE24E39408E028E046EA5EE068E3EB
:1056900070E090E080E00E94351503E023E243E8EB
:1056A0005EE06DE370E08AE090E00E94351504E072
:1056B00020E143E75EE069E170E080E790E00E946E
:1056C00035151093130682E196E00E94A81B0E94F4
:1056D0000619882319F1809112068823D1F08130B0
:1056E000E9F40E947E22809176018823A1F00E9435
:1056F000882411C0EE24E39404E028E14EEA5EE041
:105700006CE370E088E690E00E94351528E04CE3F9
:10571000B3CF0E947E2282E00E946E110E94173653
:105720006AE070E00E946137892B49F50E941736C4
:1057300069E170E00E9461378034910500F5AC01A9
:105740004770552721E030E001C0220F4A95EAF763
:105750002095FC0143E0F595E7954A95E1F7F6952C
:10576000FE2FEE27F795E795E752FE4F9DE3915008
:1057700031F08191DF01119782238C93F8CF02E001
:1057800010E022E0A22EB12C30E1E32E37E2F32E1E
:105790000E941736B0927908A092780810937B087F
:1057A00000937A08B7010E946137BC01990F880BFA
:1057B000990B0E9481180A5F1F4F0833110541F7AA
:1057C000C0CEEE24E39404E222E24BE152E164E134
:1057D00070E085E090E00E94351540919905509168
:1057E0009A05403137E2530710F04FE057E26CE181
:1057F00085E20E94C31B4091AC055091AD0562E269
:1058000085E20E94C31B4091BA055091BB0568E236
:1058100085E20E94C31B4091AE055091AF05809177
:10582000B0059091B105480F591F8091B205909134
:10583000B305480F591F8091B4059091B505480FE5
:10584000591F8091B6059091B705480F591F809157
:10585000B8059091B905480F591F6EE285E20E9484
:10586000C31B40919F055091A0058091A105909187
:10587000A205480F591F8091A3059091A405480FD8
:10588000591F8091A5059091A605480F591F809139
:10589000A7059091A805480F591F8091A9059091DF
:1058A000AA05480F591F64E385E20E94C31BEE243A
:1058B000E39404E022E249EF51E164E070E08AE41D
:1058C00090E00E94351522E247ED51E16CE170E075
:1058D00082E590E00E94351522E245EB51E162E25B
:1058E00070E082E590E00E94351522E243E951E143
:1058F00068E270E082E590E00E94351522E241E71F
:1059000051E16EE270E082E590E00E94351522E2FE
:105910004FE451E164E370E082E590E00E943515C8
:1059200026E04CE16CE4809110060E94E5180CE33F
:1059300020E14FEC50E162E070E08EE690E00E94E2
:10594000351502E02BE644E650E16BE370E085E0BC
:1059500090E00E94351580E196E00E94A81B0E940D
:105960000619882349F080911006823049F170F4BD
:10597000882331F0813089F00E94FD18882319F0C6
:1059800082E00E946E110E942116DBCD833009F463
:1059900058C0843089F780E0F4CF80914A088111A3
:1059A0005AC080919B0510926308843008F05BC058
:1059B000909264088EE1809365080E944B19E0CFB5
:1059C00080914A08811147C081E08093760180E58B
:1059D00090E09A83898360917501CE0101960E94BF
:1059E000D52498E9E92E95E0F92E01E510E01A8317
:1059F0000983F70161917F01CE0101960E94D524B0
:105A00000F5F1F4F0637110591F784E1E82E86E0FE
:105A1000F82E1A830983F70161917F01CE01019667
:105A20000E94D5240F5F1F4F0E38F1E01F0789F742
:105A30001A83098360917501CE0101960E94D524D5
:105A40009FCF0E947E2280917601882309F498CF0F
:105A50000E94882495CF10926308809264088EE19A
:105A6000809365088DCF84E080936408F8CF88E048
:105A70000E941F1510914B08882309F4E4C01111EE
:105A800006C081E00E946E110E94FE165ACD115090
:105A900010934B08809195018130A1F580914A08BF
:105AA0008111ACC280914B08823008F416C28091FB
:105AB0004C08813009F011C240914A0830E020E0E2
:105AC000F901EE5DF94F5CE0411178C38181982FB7
:105AD0009D7F993709F483C390E0411174C38631E7
